{
  "contractName": "ProductFactory",
  "abi": [
    {
      "inputs": [
        {
          "internalType": "address",
          "name": "_impl",
          "type": "address"
        }
      ],
      "stateMutability": "nonpayable",
      "type": "constructor"
    },
    {
      "inputs": [],
      "name": "FactoryIsPaused",
      "type": "error"
    },
    {
      "inputs": [],
      "name": "FailedDeployment",
      "type": "error"
    },
    {
      "inputs": [
        {
          "internalType": "uint256",
          "name": "balance",
          "type": "uint256"
        },
        {
          "internalType": "uint256",
          "name": "needed",
          "type": "uint256"
        }
      ],
      "name": "InsufficientBalance",
      "type": "error"
    },
    {
      "inputs": [],
      "name": "InvalidImplementationAddress",
      "type": "error"
    },
    {
      "inputs": [
        {
          "internalType": "address",
          "name": "owner",
          "type": "address"
        }
      ],
      "name": "OwnableInvalidOwner",
      "type": "error"
    },
    {
      "inputs": [
        {
          "internalType": "address",
          "name": "account",
          "type": "address"
        }
      ],
      "name": "OwnableUnauthorizedAccount",
      "type": "error"
    },
    {
      "anonymous": false,
      "inputs": [
        {
          "indexed": true,
          "internalType": "address",
          "name": "by",
          "type": "address"
        }
      ],
      "name": "FactoryPaused",
      "type": "event"
    },
    {
      "anonymous": false,
      "inputs": [
        {
          "indexed": true,
          "internalType": "address",
          "name": "by",
          "type": "address"
        }
      ],
      "name": "FactoryUnpaused",
      "type": "event"
    },
    {
      "anonymous": false,
      "inputs": [
        {
          "indexed": true,
          "internalType": "address",
          "name": "oldImpl",
          "type": "address"
        },
        {
          "indexed": true,
          "internalType": "address",
          "name": "newImpl",
          "type": "address"
        }
      ],
      "name": "ImplementationUpdated",
      "type": "event"
    },
    {
      "anonymous": false,
      "inputs": [
        {
          "indexed": true,
          "internalType": "address",
          "name": "previousOwner",
          "type": "address"
        },
        {
          "indexed": true,
          "internalType": "address",
          "name": "newOwner",
          "type": "address"
        }
      ],
      "name": "OwnershipTransferred",
      "type": "event"
    },
    {
      "anonymous": false,
      "inputs": [
        {
          "indexed": true,
          "internalType": "address",
          "name": "product",
          "type": "address"
        },
        {
          "indexed": true,
          "internalType": "address",
          "name": "seller",
          "type": "address"
        },
        {
          "indexed": true,
          "internalType": "uint256",
          "name": "productId",
          "type": "uint256"
        },
        {
          "indexed": false,
          "internalType": "bytes32",
          "name": "priceCommitment",
          "type": "bytes32"
        },
        {
          "indexed": false,
          "internalType": "uint256",
          "name": "price",
          "type": "uint256"
        }
      ],
      "name": "ProductCreated",
      "type": "event"
    },
    {
      "stateMutability": "payable",
      "type": "fallback",
      "payable": true
    },
    {
      "inputs": [],
      "name": "implementation",
      "outputs": [
        {
          "internalType": "address",
          "name": "",
          "type": "address"
        }
      ],
      "stateMutability": "view",
      "type": "function",
      "constant": true
    },
    {
      "inputs": [],
      "name": "isPaused",
      "outputs": [
        {
          "internalType": "bool",
          "name": "",
          "type": "bool"
        }
      ],
      "stateMutability": "view",
      "type": "function",
      "constant": true
    },
    {
      "inputs": [],
      "name": "owner",
      "outputs": [
        {
          "internalType": "address",
          "name": "",
          "type": "address"
        }
      ],
      "stateMutability": "view",
      "type": "function",
      "constant": true
    },
    {
      "inputs": [],
      "name": "productCount",
      "outputs": [
        {
          "internalType": "uint256",
          "name": "",
          "type": "uint256"
        }
      ],
      "stateMutability": "view",
      "type": "function",
      "constant": true
    },
    {
      "inputs": [
        {
          "internalType": "uint256",
          "name": "",
          "type": "uint256"
        }
      ],
      "name": "products",
      "outputs": [
        {
          "internalType": "address",
          "name": "",
          "type": "address"
        }
      ],
      "stateMutability": "view",
      "type": "function",
      "constant": true
    },
    {
      "inputs": [],
      "name": "renounceOwnership",
      "outputs": [],
      "stateMutability": "nonpayable",
      "type": "function"
    },
    {
      "inputs": [
        {
          "internalType": "address",
          "name": "newOwner",
          "type": "address"
        }
      ],
      "name": "transferOwnership",
      "outputs": [],
      "stateMutability": "nonpayable",
      "type": "function"
    },
    {
      "stateMutability": "payable",
      "type": "receive",
      "payable": true
    },
    {
      "inputs": [
        {
          "internalType": "address",
          "name": "_impl",
          "type": "address"
        }
      ],
      "name": "setImplementation",
      "outputs": [],
      "stateMutability": "nonpayable",
      "type": "function"
    },
    {
      "inputs": [],
      "name": "pause",
      "outputs": [],
      "stateMutability": "nonpayable",
      "type": "function"
    },
    {
      "inputs": [],
      "name": "unpause",
      "outputs": [],
      "stateMutability": "nonpayable",
      "type": "function"
    },
    {
      "inputs": [
        {
          "internalType": "string",
          "name": "name",
          "type": "string"
        },
        {
          "internalType": "bytes32",
          "name": "priceCommitment",
          "type": "bytes32"
        },
        {
          "internalType": "uint256",
          "name": "price",
          "type": "uint256"
        }
      ],
      "name": "createProduct",
      "outputs": [
        {
          "internalType": "address",
          "name": "product",
          "type": "address"
        }
      ],
      "stateMutability": "nonpayable",
      "type": "function"
    },
    {
      "inputs": [
        {
          "internalType": "string",
          "name": "name",
          "type": "string"
        },
        {
          "internalType": "bytes32",
          "name": "priceCommitment",
          "type": "bytes32"
        },
        {
          "internalType": "uint256",
          "name": "price",
          "type": "uint256"
        },
        {
          "internalType": "bytes32",
          "name": "salt",
          "type": "bytes32"
        }
      ],
      "name": "createProductDeterministic",
      "outputs": [
        {
          "internalType": "address",
          "name": "product",
          "type": "address"
        }
      ],
      "stateMutability": "nonpayable",
      "type": "function"
    },
    {
      "inputs": [
        {
          "internalType": "bytes32",
          "name": "salt",
          "type": "bytes32"
        }
      ],
      "name": "predictProductAddress",
      "outputs": [
        {
          "internalType": "address",
          "name": "",
          "type": "address"
        }
      ],
      "stateMutability": "view",
      "type": "function",
      "constant": true
    },
    {
      "inputs": [
        {
          "internalType": "uint256",
          "name": "start",
          "type": "uint256"
        },
        {
          "internalType": "uint256",
          "name": "count",
          "type": "uint256"
        }
      ],
      "name": "getProductsRange",
      "outputs": [
        {
          "internalType": "address[]",
          "name": "",
          "type": "address[]"
        }
      ],
      "stateMutability": "view",
      "type": "function",
      "constant": true
    },
    {
      "inputs": [],
      "name": "getProductCount",
      "outputs": [
        {
          "internalType": "uint256",
          "name": "",
          "type": "uint256"
        }
      ],
      "stateMutability": "view",
      "type": "function",
      "constant": true
    },
    {
      "inputs": [],
      "name": "getProducts",
      "outputs": [
        {
          "internalType": "address[]",
          "name": "",
          "type": "address[]"
        }
      ],
      "stateMutability": "view",
      "type": "function",
      "constant": true
    },
    {
      "inputs": [
        {
          "internalType": "address",
          "name": "_seller",
          "type": "address"
        }
      ],
      "name": "getProductsBySeller",
      "outputs": [
        {
          "internalType": "address[]",
          "name": "",
          "type": "address[]"
        }
      ],
      "stateMutability": "view",
      "type": "function",
      "constant": true
    }
  ],
  "bytecode": "0x608060405234801561000f575f80fd5b5060405161123638038061123683398101604081905261002e91610121565b338061005357604051631e4fbdf760e01b81525f600482015260240160405180910390fd5b61005c816100d2565b506001600160a01b0381166100845760405163325c055b60e21b815260040160405180910390fd5b600180546001600160a01b0319166001600160a01b0383169081179091556040515f907faa3f731066a578e5f39b4215468d826cdd15373cbc0dfc9cb9bdc649718ef7da908290a35061014e565b5f80546001600160a01b038381166001600160a01b0319831681178455604051919092169283917f8be0079c531659141344cd1fd0a4f28419497f9722a3daafe3b4186f6b6457e09190a35050565b5f60208284031215610131575f80fd5b81516001600160a01b0381168114610147575f80fd5b9392505050565b6110db8061015b5f395ff3fe608060405260043610610101575f3560e01c806380078e3711610094578063bacdafe011610063578063bacdafe014610320578063c29b2f201461033f578063d784d42614610353578063e0f6ef8714610372578063f2fde38b1461038757610153565b806380078e37146102a85780638456cb59146102c75780638da5cb5b146102db578063b187bd26146102f757610153565b80635c60da1b116100d05780635c60da1b1461022a578063715018a614610249578063749ab9c21461025d5780637acc0b201461028957610153565b806309fc5f1e1461019b5780631a881285146101d75780633f4ba83a146101f65780634a348da91461020c57610153565b366101535760405162461bcd60e51b815260206004820152601b60248201527f466163746f727920646f6573206e6f742061636365707420455448000000000060448201526064015b60405180910390fd5b60405162461bcd60e51b815260206004820152601b60248201527f466163746f727920646f6573206e6f7420616363657074204554480000000000604482015260640161014a565b3480156101a6575f80fd5b506101ba6101b5366004610e4b565b6103a6565b6040516001600160a01b0390911681526020015b60405180910390f35b3480156101e2575f80fd5b506101ba6101f1366004610e9b565b6104e6565b348015610201575f80fd5b5061020a610554565b005b348015610217575f80fd5b506002545b6040519081526020016101ce565b348015610235575f80fd5b506001546101ba906001600160a01b031681565b348015610254575f80fd5b5061020a610592565b348015610268575f80fd5b5061027c610277366004610eb2565b6105a5565b6040516101ce9190610ed2565b348015610294575f80fd5b506101ba6102a3366004610e9b565b6106df565b3480156102b3575f80fd5b506101ba6102c2366004610f1e565b610707565b3480156102d2575f80fd5b5061020a610845565b3480156102e6575f80fd5b505f546001600160a01b03166101ba565b348015610302575f80fd5b506003546103109060ff1681565b60405190151581526020016101ce565b34801561032b575f80fd5b5061027c61033a366004610f7c565b610886565b34801561034a575f80fd5b5061027c610acf565b34801561035e575f80fd5b5061020a61036d366004610f7c565b610b2f565b34801561037d575f80fd5b5061021c60025481565b348015610392575f80fd5b5061020a6103a1366004610f7c565b610baf565b6003545f9060ff16156103cc576040516317011d6f60e31b815260040160405180910390fd5b6001546103e2906001600160a01b031683610bec565b6002805460010190819055604051636c152e6360e11b81529192506001600160a01b0383169163d82a5cc691610424918990899033908a903090600401610f97565b5f604051808303815f87803b15801561043b575f80fd5b505af115801561044d573d5f803e3d5ffd5b5050600480546001810182555f919091527f8a35acfbc15ff81a39ae7d344fd709f28e8600b4aa8c65c6b64bfe7fe36bd19b0180546001600160a01b0319166001600160a01b03851690811790915560025460408051898152602081018990529194503393507f05216afaf652b951e6dea4f3e9d898c3b338febfa3fe733ab813122d67f86117910160405180910390a4949350505050565b6001546040513060388201526f5af43d82803e903d91602b57fd5bf3ff60248201526001600160a01b039182166014820152733d602d80600a3d3981f3363d3d373d3d3d363d738152605881018390526037600c820120607882015260556043909101205f91165b92915050565b61055c610bff565b6003805460ff1916905560405133907f5dd33ddbee1b2bb2cfe2e04a15fcc4e2071c141d15e24d1fe1b5d6b80f355c0c905f90a2565b61059a610bff565b6105a35f610c2b565b565b60045460609083106105f95760405162461bcd60e51b815260206004820152601960248201527f537461727420696e646578206f7574206f6620626f756e647300000000000000604482015260640161014a565b5f6106048385611038565b60045490915081111561061657506004545b5f610621858361104b565b90505f8167ffffffffffffffff81111561063d5761063d610dae565b604051908082528060200260200182016040528015610666578160200160208202803683370190505b509050855b838110156106d557600481815481106106865761068661105e565b905f5260205f20015f9054906101000a90046001600160a01b031682888303815181106106b5576106b561105e565b6001600160a01b039092166020928302919091019091015260010161066b565b5095945050505050565b600481815481106106ee575f80fd5b5f918252602090912001546001600160a01b0316905081565b6003545f9060ff161561072d576040516317011d6f60e31b815260040160405180910390fd5b600154610742906001600160a01b0316610c7a565b6002805460010190819055604051636c152e6360e11b81529192506001600160a01b0383169163d82a5cc6916107849188908890339089903090600401610f97565b5f604051808303815f87803b15801561079b575f80fd5b505af11580156107ad573d5f803e3d5ffd5b5050600480546001810182555f919091527f8a35acfbc15ff81a39ae7d344fd709f28e8600b4aa8c65c6b64bfe7fe36bd19b0180546001600160a01b0319166001600160a01b03851690811790915560025460408051888152602081018890529194503393507f05216afaf652b951e6dea4f3e9d898c3b338febfa3fe733ab813122d67f86117910160405180910390a49392505050565b61084d610bff565b6003805460ff1916600117905560405133907ff7ab4f18771ba1e5f8db30e61ceed7bc8096937655edc7b3cae25a61921f4a1e905f90a2565b60605f805b60045481101561095157600481815481106108a8576108a861105e565b5f918252602091829020015460408051638da5cb5b60e01b815290516001600160a01b0390921692638da5cb5b926004808401938290030181865afa925050508015610911575060408051601f3d908101601f1916820190925261090e91810190611072565b60015b1561093f57846001600160a01b0316816001600160a01b03160361093d57826109398161108d565b9350505b505b806109498161108d565b91505061088b565b505f8167ffffffffffffffff81111561096c5761096c610dae565b604051908082528060200260200182016040528015610995578160200160208202803683370190505b5090505f805b600454811015610ac557600481815481106109b8576109b861105e565b5f918252602091829020015460408051638da5cb5b60e01b815290516001600160a01b0390921692638da5cb5b926004808401938290030181865afa925050508015610a21575060408051601f3d908101601f19168201909252610a1e91810190611072565b60015b15610ab357866001600160a01b0316816001600160a01b0316148015610a4657508483105b15610ab15760048281548110610a5e57610a5e61105e565b905f5260205f20015f9054906101000a90046001600160a01b0316848481518110610a8b57610a8b61105e565b6001600160a01b039092166020928302919091019091015282610aad8161108d565b9350505b505b80610abd8161108d565b91505061099b565b5090949350505050565b60606004805480602002602001604051908101604052809291908181526020018280548015610b2557602002820191905f5260205f20905b81546001600160a01b03168152600190910190602001808311610b07575b5050505050905090565b610b37610bff565b6001600160a01b038116610b5e5760405163325c055b60e21b815260040160405180910390fd5b600180546001600160a01b038381166001600160a01b0319831681179093556040519116919082907faa3f731066a578e5f39b4215468d826cdd15373cbc0dfc9cb9bdc649718ef7da905f90a35050565b610bb7610bff565b6001600160a01b038116610be057604051631e4fbdf760e01b81525f600482015260240161014a565b610be981610c2b565b50565b5f610bf883835f610c85565b9392505050565b5f546001600160a01b031633146105a35760405163118cdaa760e01b815233600482015260240161014a565b5f80546001600160a01b038381166001600160a01b0319831681178455604051919092169283917f8be0079c531659141344cd1fd0a4f28419497f9722a3daafe3b4186f6b6457e09190a35050565b5f61054e825f610d1a565b5f81471015610cb05760405163cf47918160e01b81524760048201526024810183905260440161014a565b763d602d80600a3d3981f3363d3d373d3d3d363d730000008460601b60e81c175f526e5af43d82803e903d91602b57fd5bf38460781b17602052826037600984f590506001600160a01b038116610bf85760405163b06ebf3d60e01b815260040160405180910390fd5b5f81471015610d455760405163cf47918160e01b81524760048201526024810183905260440161014a565b763d602d80600a3d3981f3363d3d373d3d3d363d730000008360601b60e81c175f526e5af43d82803e903d91602b57fd5bf38360781b176020526037600983f090506001600160a01b03811661054e5760405163b06ebf3d60e01b815260040160405180910390fd5b634e487b7160e01b5f52604160045260245ffd5b5f82601f830112610dd1575f80fd5b813567ffffffffffffffff80821115610dec57610dec610dae565b604051601f8301601f19908116603f01168101908282118183101715610e1457610e14610dae565b81604052838152866020858801011115610e2c575f80fd5b836020870160208301375f602085830101528094505050505092915050565b5f805f8060808587031215610e5e575f80fd5b843567ffffffffffffffff811115610e74575f80fd5b610e8087828801610dc2565b97602087013597506040870135966060013595509350505050565b5f60208284031215610eab575f80fd5b5035919050565b5f8060408385031215610ec3575f80fd5b50508035926020909101359150565b602080825282518282018190525f9190848201906040850190845b81811015610f125783516001600160a01b031683529284019291840191600101610eed565b50909695505050505050565b5f805f60608486031215610f30575f80fd5b833567ffffffffffffffff811115610f46575f80fd5b610f5286828701610dc2565b9660208601359650604090950135949350505050565b6001600160a01b0381168114610be9575f80fd5b5f60208284031215610f8c575f80fd5b8135610bf881610f68565b8681525f602060c08184015287518060c08501525f5b81811015610fc95789810183015185820160e001528201610fad565b505f60e0828601015260e0601f19601f83011685010192505050856040830152610ffe60608301866001600160a01b03169052565b83608083015261101960a08301846001600160a01b03169052565b979650505050505050565b634e487b7160e01b5f52601160045260245ffd5b8082018082111561054e5761054e611024565b8181038181111561054e5761054e611024565b634e487b7160e01b5f52603260045260245ffd5b5f60208284031215611082575f80fd5b8151610bf881610f68565b5f6001820161109e5761109e611024565b506001019056fea264697066735822122099cb4c6e964d6c64cc10aed9d65550ddaea2787a7f1fcfd1799e073cae97700364736f6c63430008150033",
  "immutableReferences": {},
  "source": "// SPDX-License-Identifier: MIT\r\npragma solidity ^0.8.0;\r\n\r\nimport \"@openzeppelin/contracts/proxy/Clones.sol\";\r\nimport \"@openzeppelin/contracts/access/Ownable.sol\";\r\nimport \"./ProductEscrow_Initializer.sol\";\r\n\r\n// Interface for calling ProductEscrow functions without casting issues\r\ninterface IProductEscrowOwner {\r\n    function owner() external view returns (address payable);\r\n}\r\n\r\n// Standardized custom errors for gas efficiency and consistency\r\nerror InvalidImplementationAddress();\r\nerror FactoryIsPaused();\r\n\r\ncontract ProductFactory is Ownable {\r\n    using Clones for address;\r\n\r\n    event ProductCreated(address indexed product, address indexed seller, uint256 indexed productId, bytes32 priceCommitment, uint256 price);\r\n    event ImplementationUpdated(address indexed oldImpl, address indexed newImpl);\r\n    event FactoryPaused(address indexed by);\r\n    event FactoryUnpaused(address indexed by);\r\n\r\n    // Packed storage for gas optimization\r\n    address public implementation;\r\n    uint256 public productCount;\r\n    bool public isPaused; // Lightweight pause mechanism (factory-level only)\r\n    \r\n    // Paged getter for dev convenience (optional, not main indexing)\r\n    address[] public products;\r\n\r\n    constructor(address _impl) Ownable(msg.sender) {\r\n        if (_impl == address(0)) revert InvalidImplementationAddress();\r\n        implementation = _impl;\r\n        emit ImplementationUpdated(address(0), _impl);\r\n    }\r\n\r\n    modifier whenNotPaused() {\r\n        if (isPaused) revert FactoryIsPaused();\r\n        _;\r\n    }\r\n\r\n    // Alias for the suggested function name\r\n    function setImplementation(address _impl) external onlyOwner {\r\n        if (_impl == address(0)) revert InvalidImplementationAddress();\r\n        address oldImpl = implementation;\r\n        implementation = _impl;\r\n        emit ImplementationUpdated(oldImpl, _impl);\r\n    }\r\n\r\n    function pause() external onlyOwner {\r\n        isPaused = true;\r\n        emit FactoryPaused(msg.sender);\r\n    }\r\n\r\n    function unpause() external onlyOwner {\r\n        isPaused = false;\r\n        emit FactoryUnpaused(msg.sender);\r\n    }\r\n\r\n    function createProduct(string memory name, bytes32 priceCommitment, uint256 price) \r\n        external \r\n        whenNotPaused \r\n        returns (address product) \r\n    {\r\n        product = implementation.clone();\r\n        \r\n        // Use unchecked for safe increment\r\n        unchecked {\r\n            productCount++;\r\n        }\r\n        \r\n        // Initialize the clone\r\n        ProductEscrow_Initializer(payable(product)).initialize(\r\n            productCount, \r\n            name, \r\n            priceCommitment, \r\n            msg.sender,\r\n            price, //  Pass the actual price instead of 0\r\n            address(this) //  Pass factory address for security\r\n        );\r\n\r\n        // Store for optional paged access (dev convenience)\r\n        products.push(product);\r\n        \r\n        emit ProductCreated(product, msg.sender, productCount, priceCommitment, price);\r\n    }\r\n\r\n    function createProductDeterministic(\r\n        string memory name, \r\n        bytes32 priceCommitment, \r\n        uint256 price,\r\n        bytes32 salt\r\n    ) \r\n        external \r\n        whenNotPaused \r\n        returns (address product) \r\n    {\r\n        product = implementation.cloneDeterministic(salt);\r\n        \r\n        // Use unchecked for safe increment\r\n        unchecked {\r\n            productCount++;\r\n        }\r\n        \r\n        // Initialize the clone\r\n        ProductEscrow_Initializer(payable(product)).initialize(\r\n            productCount, \r\n            name, \r\n            priceCommitment, \r\n            msg.sender,\r\n            price, //  Pass the actual price instead of 0\r\n            address(this) //  Pass factory address for security\r\n        );\r\n\r\n        // Store for optional paged access (dev convenience)\r\n        products.push(product);\r\n        \r\n        emit ProductCreated(product, msg.sender, productCount, priceCommitment, price);\r\n    }\r\n\r\n    function predictProductAddress(bytes32 salt) public view returns (address) {\r\n        return Clones.predictDeterministicAddress(implementation, salt, address(this));\r\n    }\r\n\r\n    // Optional paged getter for dev convenience (not main indexing)\r\n    // Optimized to avoid unbounded loops in write operations\r\n    function getProductsRange(uint256 start, uint256 count) public view returns (address[] memory) {\r\n        require(start < products.length, \"Start index out of bounds\");\r\n        uint256 end = start + count;\r\n        if (end > products.length) {\r\n            end = products.length;\r\n        }\r\n        \r\n        uint256 resultLength = end - start;\r\n        address[] memory result = new address[](resultLength);\r\n        \r\n        // Use unchecked for safe loop operations\r\n        unchecked {\r\n            for (uint256 i = start; i < end; i++) {\r\n                result[i - start] = products[i];\r\n            }\r\n        }\r\n        \r\n        return result;\r\n    }\r\n\r\n    // Gas-efficient getter for total products (alternative to array.length)\r\n    function getProductCount() public view returns (uint256) {\r\n        return productCount;\r\n    }\r\n\r\n    // Gas-efficient getter for all products (alternative to array access)\r\n    function getProducts() public view returns (address[] memory) {\r\n        return products;\r\n    }\r\n\r\n    // Get products by seller (fixed implementation)\r\n    function getProductsBySeller(address _seller) public view returns (address[] memory) {\r\n        uint256 count = 0;\r\n        \r\n        // First pass: count products by this seller\r\n        for (uint256 i = 0; i < products.length; i++) {\r\n            try IProductEscrowOwner(products[i]).owner() returns (address payable owner) {\r\n                if (owner == _seller) {\r\n                    count++;\r\n                }\r\n            } catch {\r\n                // Skip if product is not properly initialized\r\n                continue;\r\n            }\r\n        }\r\n        \r\n        // Second pass: collect product addresses\r\n        address[] memory sellerProducts = new address[](count);\r\n        uint256 index = 0;\r\n        \r\n        for (uint256 i = 0; i < products.length; i++) {\r\n            try IProductEscrowOwner(products[i]).owner() returns (address payable owner) {\r\n                if (owner == _seller && index < count) {\r\n                    sellerProducts[index] = products[i]; // Fixed: store product address, not seller address\r\n                    index++;\r\n                }\r\n            } catch {\r\n                // Skip if product is not properly initialized\r\n                continue;\r\n            }\r\n        }\r\n        \r\n        return sellerProducts;\r\n    }\r\n\r\n\r\n\r\n    // Explicitly reject unexpected ETH\r\n    receive() external payable {\r\n        revert(\"Factory does not accept ETH\");\r\n    }\r\n\r\n    fallback() external payable {\r\n        revert(\"Factory does not accept ETH\");\r\n    }\r\n}",
  "sourcePath": "C:\\Users\\yamen\\ev-battery-supplychain\\contracts\\ProductFactory.sol",
  "compiler": {
    "name": "solc",
    "version": "0.8.21+commit.d9974bed.Emscripten.clang"
  },
  "schemaVersion": "3.4.16",
  "updatedAt": "2025-11-12T11:58:37.223Z",
  "networkType": "ethereum",
  "devdoc": {
    "errors": {
      "FailedDeployment()": [
        {
          "details": "The deployment failed."
        }
      ],
      "InsufficientBalance(uint256,uint256)": [
        {
          "details": "The ETH balance of the account is not enough to perform the operation."
        }
      ],
      "OwnableInvalidOwner(address)": [
        {
          "details": "The owner is not a valid owner account. (eg. `address(0)`)"
        }
      ],
      "OwnableUnauthorizedAccount(address)": [
        {
          "details": "The caller account is not authorized to perform an operation."
        }
      ]
    },
    "kind": "dev",
    "methods": {
      "owner()": {
        "details": "Returns the address of the current owner."
      },
      "renounceOwnership()": {
        "details": "Leaves the contract without owner. It will not be possible to call `onlyOwner` functions. Can only be called by the current owner. NOTE: Renouncing ownership will leave the contract without an owner, thereby disabling any functionality that is only available to the owner."
      },
      "transferOwnership(address)": {
        "details": "Transfers ownership of the contract to a new account (`newOwner`). Can only be called by the current owner."
      }
    },
    "version": 1
  },
  "userdoc": {
    "kind": "user",
    "methods": {},
    "version": 1
  }
}