{
  "contractName": "ProductEscrow_Initializer",
  "abi": [
    {
      "inputs": [],
      "name": "AlreadyDelivered",
      "type": "error"
    },
    {
      "inputs": [],
      "name": "AlreadyExists",
      "type": "error"
    },
    {
      "inputs": [],
      "name": "AlreadyInitialized",
      "type": "error"
    },
    {
      "inputs": [],
      "name": "AlreadyPaid",
      "type": "error"
    },
    {
      "inputs": [],
      "name": "AlreadyPurchased",
      "type": "error"
    },
    {
      "inputs": [],
      "name": "AlreadySelected",
      "type": "error"
    },
    {
      "inputs": [],
      "name": "BidCapReached",
      "type": "error"
    },
    {
      "inputs": [],
      "name": "BiddingWindowNotExpired",
      "type": "error"
    },
    {
      "inputs": [],
      "name": "BuyerRefundFailed",
      "type": "error"
    },
    {
      "inputs": [],
      "name": "CommitmentFrozen",
      "type": "error"
    },
    {
      "inputs": [],
      "name": "DeliveryTimeout",
      "type": "error"
    },
    {
      "inputs": [],
      "name": "EmptyName",
      "type": "error"
    },
    {
      "inputs": [],
      "name": "IncorrectDeliveryFee",
      "type": "error"
    },
    {
      "inputs": [],
      "name": "IncorrectFee",
      "type": "error"
    },
    {
      "inputs": [],
      "name": "InvalidOwnerAddress",
      "type": "error"
    },
    {
      "inputs": [],
      "name": "InvalidProductId",
      "type": "error"
    },
    {
      "inputs": [],
      "name": "InvalidPurchaseMode",
      "type": "error"
    },
    {
      "inputs": [],
      "name": "MemoAlreadyUsed",
      "type": "error"
    },
    {
      "inputs": [],
      "name": "NotATransporter",
      "type": "error"
    },
    {
      "inputs": [],
      "name": "NotBuyer",
      "type": "error"
    },
    {
      "inputs": [],
      "name": "NotDelivered",
      "type": "error"
    },
    {
      "inputs": [],
      "name": "NotFactory",
      "type": "error"
    },
    {
      "inputs": [],
      "name": "NotParticipant",
      "type": "error"
    },
    {
      "inputs": [],
      "name": "NotPurchased",
      "type": "error"
    },
    {
      "inputs": [],
      "name": "NotRegistered",
      "type": "error"
    },
    {
      "inputs": [],
      "name": "NotSeller",
      "type": "error"
    },
    {
      "inputs": [],
      "name": "NotYetTimeout",
      "type": "error"
    },
    {
      "inputs": [],
      "name": "OwnerCannotPurchase",
      "type": "error"
    },
    {
      "inputs": [],
      "name": "PaymentAlreadyRecorded",
      "type": "error"
    },
    {
      "inputs": [],
      "name": "PriceZero",
      "type": "error"
    },
    {
      "inputs": [],
      "name": "PrivateDisabled",
      "type": "error"
    },
    {
      "inputs": [],
      "name": "PublicDisabled",
      "type": "error"
    },
    {
      "inputs": [],
      "name": "PublicPriceNotSet",
      "type": "error"
    },
    {
      "inputs": [],
      "name": "ReentrancyGuardReentrantCall",
      "type": "error"
    },
    {
      "inputs": [],
      "name": "RefundFailed",
      "type": "error"
    },
    {
      "inputs": [],
      "name": "RevealInvalid",
      "type": "error"
    },
    {
      "inputs": [],
      "name": "SellerWindowNotExpired",
      "type": "error"
    },
    {
      "inputs": [],
      "name": "TooEarlyToDelete",
      "type": "error"
    },
    {
      "inputs": [
        {
          "internalType": "address",
          "name": "to",
          "type": "address"
        },
        {
          "internalType": "uint256",
          "name": "amount",
          "type": "uint256"
        }
      ],
      "name": "TransferFailed",
      "type": "error"
    },
    {
      "inputs": [],
      "name": "TransporterNotSet",
      "type": "error"
    },
    {
      "inputs": [],
      "name": "WrongPhase",
      "type": "error"
    },
    {
      "inputs": [],
      "name": "WrongProductId",
      "type": "error"
    },
    {
      "inputs": [],
      "name": "ZeroMemoHash",
      "type": "error"
    },
    {
      "inputs": [],
      "name": "ZeroPriceCommitment",
      "type": "error"
    },
    {
      "inputs": [],
      "name": "ZeroTxRef",
      "type": "error"
    },
    {
      "anonymous": false,
      "inputs": [
        {
          "indexed": true,
          "internalType": "address",
          "name": "transporter",
          "type": "address"
        },
        {
          "indexed": true,
          "internalType": "uint256",
          "name": "productId",
          "type": "uint256"
        },
        {
          "indexed": false,
          "internalType": "uint256",
          "name": "timestamp",
          "type": "uint256"
        }
      ],
      "name": "BidWithdrawn",
      "type": "event"
    },
    {
      "anonymous": false,
      "inputs": [
        {
          "indexed": true,
          "internalType": "address",
          "name": "seller",
          "type": "address"
        },
        {
          "indexed": true,
          "internalType": "address",
          "name": "transporter",
          "type": "address"
        },
        {
          "indexed": true,
          "internalType": "uint256",
          "name": "productId",
          "type": "uint256"
        },
        {
          "indexed": false,
          "internalType": "uint256",
          "name": "timestamp",
          "type": "uint256"
        }
      ],
      "name": "CancelDelivery",
      "type": "event"
    },
    {
      "anonymous": false,
      "inputs": [
        {
          "indexed": true,
          "internalType": "address",
          "name": "buyer",
          "type": "address"
        },
        {
          "indexed": true,
          "internalType": "address",
          "name": "transporter",
          "type": "address"
        },
        {
          "indexed": true,
          "internalType": "address",
          "name": "seller",
          "type": "address"
        },
        {
          "indexed": false,
          "internalType": "uint256",
          "name": "productId",
          "type": "uint256"
        },
        {
          "indexed": false,
          "internalType": "bytes32",
          "name": "priceCommitment",
          "type": "bytes32"
        },
        {
          "indexed": false,
          "internalType": "string",
          "name": "vcCID",
          "type": "string"
        },
        {
          "indexed": false,
          "internalType": "uint256",
          "name": "timestamp",
          "type": "uint256"
        }
      ],
      "name": "DeliveryConfirmed",
      "type": "event"
    },
    {
      "anonymous": false,
      "inputs": [
        {
          "indexed": true,
          "internalType": "uint256",
          "name": "productId",
          "type": "uint256"
        },
        {
          "indexed": true,
          "internalType": "bytes32",
          "name": "txHashCommitment",
          "type": "bytes32"
        },
        {
          "indexed": true,
          "internalType": "address",
          "name": "buyer",
          "type": "address"
        },
        {
          "indexed": false,
          "internalType": "string",
          "name": "vcCID",
          "type": "string"
        },
        {
          "indexed": false,
          "internalType": "uint256",
          "name": "timestamp",
          "type": "uint256"
        }
      ],
      "name": "DeliveryConfirmedWithCommitment",
      "type": "event"
    },
    {
      "anonymous": false,
      "inputs": [
        {
          "indexed": true,
          "internalType": "address",
          "name": "caller",
          "type": "address"
        },
        {
          "indexed": true,
          "internalType": "uint256",
          "name": "productId",
          "type": "uint256"
        },
        {
          "indexed": false,
          "internalType": "uint256",
          "name": "time",
          "type": "uint256"
        },
        {
          "indexed": false,
          "internalType": "uint256",
          "name": "timestamp",
          "type": "uint256"
        }
      ],
      "name": "DeliveryTimeoutEvent",
      "type": "event"
    },
    {
      "anonymous": false,
      "inputs": [
        {
          "indexed": true,
          "internalType": "address",
          "name": "to",
          "type": "address"
        },
        {
          "indexed": true,
          "internalType": "uint256",
          "name": "productId",
          "type": "uint256"
        },
        {
          "indexed": false,
          "internalType": "uint256",
          "name": "timestamp",
          "type": "uint256"
        }
      ],
      "name": "FundsTransferred",
      "type": "event"
    },
    {
      "anonymous": false,
      "inputs": [
        {
          "indexed": true,
          "internalType": "address",
          "name": "buyer",
          "type": "address"
        },
        {
          "indexed": true,
          "internalType": "address",
          "name": "seller",
          "type": "address"
        },
        {
          "indexed": true,
          "internalType": "uint256",
          "name": "productId",
          "type": "uint256"
        },
        {
          "indexed": false,
          "internalType": "bytes32",
          "name": "priceCommitment",
          "type": "bytes32"
        },
        {
          "indexed": false,
          "internalType": "string",
          "name": "vcCID",
          "type": "string"
        },
        {
          "indexed": false,
          "internalType": "uint256",
          "name": "timestamp",
          "type": "uint256"
        }
      ],
      "name": "OrderConfirmed",
      "type": "event"
    },
    {
      "anonymous": false,
      "inputs": [
        {
          "indexed": true,
          "internalType": "uint256",
          "name": "productId",
          "type": "uint256"
        },
        {
          "indexed": false,
          "internalType": "bytes32",
          "name": "memoHash",
          "type": "bytes32"
        },
        {
          "indexed": false,
          "internalType": "bytes32",
          "name": "railgunTxRef",
          "type": "bytes32"
        },
        {
          "indexed": false,
          "internalType": "uint256",
          "name": "timestamp",
          "type": "uint256"
        }
      ],
      "name": "PaidPrivately",
      "type": "event"
    },
    {
      "anonymous": false,
      "inputs": [
        {
          "indexed": true,
          "internalType": "address",
          "name": "to",
          "type": "address"
        },
        {
          "indexed": true,
          "internalType": "uint256",
          "name": "productId",
          "type": "uint256"
        },
        {
          "indexed": false,
          "internalType": "string",
          "name": "reason",
          "type": "string"
        },
        {
          "indexed": false,
          "internalType": "uint256",
          "name": "timestamp",
          "type": "uint256"
        }
      ],
      "name": "PenaltyApplied",
      "type": "event"
    },
    {
      "anonymous": false,
      "inputs": [
        {
          "indexed": true,
          "internalType": "uint256",
          "name": "productId",
          "type": "uint256"
        },
        {
          "indexed": true,
          "internalType": "enum ProductEscrow_Initializer.Phase",
          "name": "from",
          "type": "uint8"
        },
        {
          "indexed": true,
          "internalType": "enum ProductEscrow_Initializer.Phase",
          "name": "to",
          "type": "uint8"
        },
        {
          "indexed": false,
          "internalType": "address",
          "name": "actor",
          "type": "address"
        },
        {
          "indexed": false,
          "internalType": "uint256",
          "name": "timestamp",
          "type": "uint256"
        },
        {
          "indexed": false,
          "internalType": "bytes32",
          "name": "ref",
          "type": "bytes32"
        }
      ],
      "name": "PhaseChanged",
      "type": "event"
    },
    {
      "anonymous": false,
      "inputs": [
        {
          "indexed": true,
          "internalType": "uint256",
          "name": "id",
          "type": "uint256"
        },
        {
          "indexed": false,
          "internalType": "bool",
          "name": "enabled",
          "type": "bool"
        }
      ],
      "name": "PrivateEnabledSet",
      "type": "event"
    },
    {
      "anonymous": false,
      "inputs": [
        {
          "indexed": true,
          "internalType": "uint256",
          "name": "productId",
          "type": "uint256"
        },
        {
          "indexed": false,
          "internalType": "bytes32",
          "name": "memoHash",
          "type": "bytes32"
        },
        {
          "indexed": false,
          "internalType": "bytes32",
          "name": "railgunTxRef",
          "type": "bytes32"
        },
        {
          "indexed": true,
          "internalType": "address",
          "name": "recorder",
          "type": "address"
        },
        {
          "indexed": false,
          "internalType": "uint256",
          "name": "timestamp",
          "type": "uint256"
        }
      ],
      "name": "PrivatePaymentRecorded",
      "type": "event"
    },
    {
      "anonymous": false,
      "inputs": [
        {
          "indexed": true,
          "internalType": "uint256",
          "name": "productId",
          "type": "uint256"
        },
        {
          "indexed": false,
          "internalType": "string",
          "name": "productName",
          "type": "string"
        },
        {
          "indexed": true,
          "internalType": "address",
          "name": "seller",
          "type": "address"
        },
        {
          "indexed": false,
          "internalType": "uint256",
          "name": "timestamp",
          "type": "uint256"
        }
      ],
      "name": "ProductDeleted",
      "type": "event"
    },
    {
      "anonymous": false,
      "inputs": [
        {
          "indexed": true,
          "internalType": "uint256",
          "name": "productId",
          "type": "uint256"
        },
        {
          "indexed": true,
          "internalType": "address",
          "name": "seller",
          "type": "address"
        },
        {
          "indexed": true,
          "internalType": "address",
          "name": "buyer",
          "type": "address"
        },
        {
          "indexed": false,
          "internalType": "enum ProductEscrow_Initializer.Phase",
          "name": "phase",
          "type": "uint8"
        },
        {
          "indexed": false,
          "internalType": "uint256",
          "name": "timestamp",
          "type": "uint256"
        },
        {
          "indexed": false,
          "internalType": "bytes32",
          "name": "priceCommitment",
          "type": "bytes32"
        },
        {
          "indexed": false,
          "internalType": "bool",
          "name": "purchased",
          "type": "bool"
        },
        {
          "indexed": false,
          "internalType": "bool",
          "name": "delivered",
          "type": "bool"
        }
      ],
      "name": "ProductStateChanged",
      "type": "event"
    },
    {
      "anonymous": false,
      "inputs": [
        {
          "indexed": true,
          "internalType": "uint256",
          "name": "id",
          "type": "uint256"
        },
        {
          "indexed": false,
          "internalType": "bool",
          "name": "enabled",
          "type": "bool"
        }
      ],
      "name": "PublicEnabledSet",
      "type": "event"
    },
    {
      "anonymous": false,
      "inputs": [
        {
          "indexed": true,
          "internalType": "uint256",
          "name": "id",
          "type": "uint256"
        },
        {
          "indexed": false,
          "internalType": "bytes32",
          "name": "commitment",
          "type": "bytes32"
        }
      ],
      "name": "PublicPriceCommitmentSet",
      "type": "event"
    },
    {
      "anonymous": false,
      "inputs": [
        {
          "indexed": false,
          "internalType": "uint256",
          "name": "priceWei",
          "type": "uint256"
        }
      ],
      "name": "PublicPriceSet",
      "type": "event"
    },
    {
      "anonymous": false,
      "inputs": [
        {
          "indexed": true,
          "internalType": "uint256",
          "name": "productId",
          "type": "uint256"
        },
        {
          "indexed": true,
          "internalType": "bytes32",
          "name": "purchaseTxHashCommitment",
          "type": "bytes32"
        },
        {
          "indexed": true,
          "internalType": "address",
          "name": "buyer",
          "type": "address"
        },
        {
          "indexed": false,
          "internalType": "string",
          "name": "vcCID",
          "type": "string"
        },
        {
          "indexed": false,
          "internalType": "uint256",
          "name": "timestamp",
          "type": "uint256"
        }
      ],
      "name": "PurchaseConfirmedWithCommitment",
      "type": "event"
    },
    {
      "anonymous": false,
      "inputs": [
        {
          "indexed": true,
          "internalType": "address",
          "name": "buyer",
          "type": "address"
        },
        {
          "indexed": false,
          "internalType": "bytes32",
          "name": "memoHash",
          "type": "bytes32"
        },
        {
          "indexed": false,
          "internalType": "bytes32",
          "name": "railgunTxRef",
          "type": "bytes32"
        }
      ],
      "name": "PurchasedPrivate",
      "type": "event"
    },
    {
      "anonymous": false,
      "inputs": [
        {
          "indexed": true,
          "internalType": "address",
          "name": "buyer",
          "type": "address"
        }
      ],
      "name": "PurchasedPublic",
      "type": "event"
    },
    {
      "anonymous": false,
      "inputs": [
        {
          "indexed": true,
          "internalType": "address",
          "name": "caller",
          "type": "address"
        },
        {
          "indexed": true,
          "internalType": "uint256",
          "name": "productId",
          "type": "uint256"
        },
        {
          "indexed": false,
          "internalType": "uint256",
          "name": "time",
          "type": "uint256"
        },
        {
          "indexed": false,
          "internalType": "uint256",
          "name": "timestamp",
          "type": "uint256"
        }
      ],
      "name": "SellerTimeout",
      "type": "event"
    },
    {
      "anonymous": false,
      "inputs": [
        {
          "indexed": true,
          "internalType": "address",
          "name": "transporter",
          "type": "address"
        },
        {
          "indexed": true,
          "internalType": "uint256",
          "name": "productId",
          "type": "uint256"
        },
        {
          "indexed": false,
          "internalType": "uint256",
          "name": "timestamp",
          "type": "uint256"
        }
      ],
      "name": "TransporterCreated",
      "type": "event"
    },
    {
      "anonymous": false,
      "inputs": [
        {
          "indexed": true,
          "internalType": "address",
          "name": "transporter",
          "type": "address"
        },
        {
          "indexed": true,
          "internalType": "uint256",
          "name": "productId",
          "type": "uint256"
        },
        {
          "indexed": false,
          "internalType": "uint256",
          "name": "timestamp",
          "type": "uint256"
        }
      ],
      "name": "TransporterSecurityDeposit",
      "type": "event"
    },
    {
      "anonymous": false,
      "inputs": [
        {
          "indexed": true,
          "internalType": "uint256",
          "name": "productId",
          "type": "uint256"
        },
        {
          "indexed": true,
          "internalType": "address",
          "name": "transporter",
          "type": "address"
        },
        {
          "indexed": false,
          "internalType": "uint256",
          "name": "timestamp",
          "type": "uint256"
        }
      ],
      "name": "TransporterSelected",
      "type": "event"
    },
    {
      "anonymous": false,
      "inputs": [
        {
          "indexed": false,
          "internalType": "bytes32",
          "name": "commitment",
          "type": "bytes32"
        },
        {
          "indexed": false,
          "internalType": "bytes",
          "name": "proof",
          "type": "bytes"
        }
      ],
      "name": "ValueCommitted",
      "type": "event"
    },
    {
      "anonymous": false,
      "inputs": [
        {
          "indexed": true,
          "internalType": "uint256",
          "name": "productId",
          "type": "uint256"
        },
        {
          "indexed": false,
          "internalType": "bytes32",
          "name": "commitment",
          "type": "bytes32"
        },
        {
          "indexed": false,
          "internalType": "bool",
          "name": "valid",
          "type": "bool"
        },
        {
          "indexed": false,
          "internalType": "uint256",
          "name": "timestamp",
          "type": "uint256"
        }
      ],
      "name": "ValueRevealed",
      "type": "event"
    },
    {
      "anonymous": false,
      "inputs": [
        {
          "indexed": true,
          "internalType": "uint256",
          "name": "productId",
          "type": "uint256"
        },
        {
          "indexed": false,
          "internalType": "string",
          "name": "cid",
          "type": "string"
        },
        {
          "indexed": true,
          "internalType": "address",
          "name": "seller",
          "type": "address"
        },
        {
          "indexed": false,
          "internalType": "uint256",
          "name": "timestamp",
          "type": "uint256"
        }
      ],
      "name": "VcUpdated",
      "type": "event"
    },
    {
      "stateMutability": "payable",
      "type": "fallback",
      "payable": true
    },
    {
      "inputs": [],
      "name": "BID_WINDOW",
      "outputs": [
        {
          "internalType": "uint32",
          "name": "",
          "type": "uint32"
        }
      ],
      "stateMutability": "view",
      "type": "function",
      "constant": true
    },
    {
      "inputs": [],
      "name": "DELIVERY_WINDOW",
      "outputs": [
        {
          "internalType": "uint32",
          "name": "",
          "type": "uint32"
        }
      ],
      "stateMutability": "view",
      "type": "function",
      "constant": true
    },
    {
      "inputs": [],
      "name": "MAX_BIDS",
      "outputs": [
        {
          "internalType": "uint8",
          "name": "",
          "type": "uint8"
        }
      ],
      "stateMutability": "view",
      "type": "function",
      "constant": true
    },
    {
      "inputs": [],
      "name": "SELLER_WINDOW",
      "outputs": [
        {
          "internalType": "uint32",
          "name": "",
          "type": "uint32"
        }
      ],
      "stateMutability": "view",
      "type": "function",
      "constant": true
    },
    {
      "inputs": [],
      "name": "buyer",
      "outputs": [
        {
          "internalType": "address payable",
          "name": "",
          "type": "address"
        }
      ],
      "stateMutability": "view",
      "type": "function",
      "constant": true
    },
    {
      "inputs": [],
      "name": "commitmentFrozen",
      "outputs": [
        {
          "internalType": "bool",
          "name": "",
          "type": "bool"
        }
      ],
      "stateMutability": "view",
      "type": "function",
      "constant": true
    },
    {
      "inputs": [],
      "name": "delivered",
      "outputs": [
        {
          "internalType": "bool",
          "name": "",
          "type": "bool"
        }
      ],
      "stateMutability": "view",
      "type": "function",
      "constant": true
    },
    {
      "inputs": [],
      "name": "deliveryFee",
      "outputs": [
        {
          "internalType": "uint256",
          "name": "",
          "type": "uint256"
        }
      ],
      "stateMutability": "view",
      "type": "function",
      "constant": true
    },
    {
      "inputs": [],
      "name": "factory",
      "outputs": [
        {
          "internalType": "address",
          "name": "",
          "type": "address"
        }
      ],
      "stateMutability": "view",
      "type": "function",
      "constant": true
    },
    {
      "inputs": [],
      "name": "id",
      "outputs": [
        {
          "internalType": "uint256",
          "name": "",
          "type": "uint256"
        }
      ],
      "stateMutability": "view",
      "type": "function",
      "constant": true
    },
    {
      "inputs": [
        {
          "internalType": "address",
          "name": "",
          "type": "address"
        }
      ],
      "name": "isTransporter",
      "outputs": [
        {
          "internalType": "bool",
          "name": "",
          "type": "bool"
        }
      ],
      "stateMutability": "view",
      "type": "function",
      "constant": true
    },
    {
      "inputs": [],
      "name": "name",
      "outputs": [
        {
          "internalType": "string",
          "name": "",
          "type": "string"
        }
      ],
      "stateMutability": "view",
      "type": "function",
      "constant": true
    },
    {
      "inputs": [],
      "name": "orderConfirmedTimestamp",
      "outputs": [
        {
          "internalType": "uint64",
          "name": "",
          "type": "uint64"
        }
      ],
      "stateMutability": "view",
      "type": "function",
      "constant": true
    },
    {
      "inputs": [],
      "name": "owner",
      "outputs": [
        {
          "internalType": "address payable",
          "name": "",
          "type": "address"
        }
      ],
      "stateMutability": "view",
      "type": "function",
      "constant": true
    },
    {
      "inputs": [],
      "name": "phase",
      "outputs": [
        {
          "internalType": "enum ProductEscrow_Initializer.Phase",
          "name": "",
          "type": "uint8"
        }
      ],
      "stateMutability": "view",
      "type": "function",
      "constant": true
    },
    {
      "inputs": [],
      "name": "priceCommitment",
      "outputs": [
        {
          "internalType": "bytes32",
          "name": "",
          "type": "bytes32"
        }
      ],
      "stateMutability": "view",
      "type": "function",
      "constant": true
    },
    {
      "inputs": [],
      "name": "privateEnabled",
      "outputs": [
        {
          "internalType": "bool",
          "name": "",
          "type": "bool"
        }
      ],
      "stateMutability": "view",
      "type": "function",
      "constant": true
    },
    {
      "inputs": [
        {
          "internalType": "bytes32",
          "name": "",
          "type": "bytes32"
        }
      ],
      "name": "privatePayments",
      "outputs": [
        {
          "internalType": "bool",
          "name": "",
          "type": "bool"
        }
      ],
      "stateMutability": "view",
      "type": "function",
      "constant": true
    },
    {
      "inputs": [
        {
          "internalType": "uint256",
          "name": "",
          "type": "uint256"
        }
      ],
      "name": "productMemoHashes",
      "outputs": [
        {
          "internalType": "bytes32",
          "name": "",
          "type": "bytes32"
        }
      ],
      "stateMutability": "view",
      "type": "function",
      "constant": true
    },
    {
      "inputs": [
        {
          "internalType": "uint256",
          "name": "",
          "type": "uint256"
        }
      ],
      "name": "productPaidBy",
      "outputs": [
        {
          "internalType": "address",
          "name": "",
          "type": "address"
        }
      ],
      "stateMutability": "view",
      "type": "function",
      "constant": true
    },
    {
      "inputs": [],
      "name": "productPrice",
      "outputs": [
        {
          "internalType": "uint256",
          "name": "",
          "type": "uint256"
        }
      ],
      "stateMutability": "view",
      "type": "function",
      "constant": true
    },
    {
      "inputs": [
        {
          "internalType": "uint256",
          "name": "",
          "type": "uint256"
        }
      ],
      "name": "productRailgunTxRefs",
      "outputs": [
        {
          "internalType": "bytes32",
          "name": "",
          "type": "bytes32"
        }
      ],
      "stateMutability": "view",
      "type": "function",
      "constant": true
    },
    {
      "inputs": [],
      "name": "publicEnabled",
      "outputs": [
        {
          "internalType": "bool",
          "name": "",
          "type": "bool"
        }
      ],
      "stateMutability": "view",
      "type": "function",
      "constant": true
    },
    {
      "inputs": [],
      "name": "publicPriceCommitment",
      "outputs": [
        {
          "internalType": "bytes32",
          "name": "",
          "type": "bytes32"
        }
      ],
      "stateMutability": "view",
      "type": "function",
      "constant": true
    },
    {
      "inputs": [],
      "name": "publicPriceWei",
      "outputs": [
        {
          "internalType": "uint256",
          "name": "",
          "type": "uint256"
        }
      ],
      "stateMutability": "view",
      "type": "function",
      "constant": true
    },
    {
      "inputs": [],
      "name": "purchaseMode",
      "outputs": [
        {
          "internalType": "enum ProductEscrow_Initializer.PurchaseMode",
          "name": "",
          "type": "uint8"
        }
      ],
      "stateMutability": "view",
      "type": "function",
      "constant": true
    },
    {
      "inputs": [],
      "name": "purchaseTimestamp",
      "outputs": [
        {
          "internalType": "uint64",
          "name": "",
          "type": "uint64"
        }
      ],
      "stateMutability": "view",
      "type": "function",
      "constant": true
    },
    {
      "inputs": [],
      "name": "purchased",
      "outputs": [
        {
          "internalType": "bool",
          "name": "",
          "type": "bool"
        }
      ],
      "stateMutability": "view",
      "type": "function",
      "constant": true
    },
    {
      "inputs": [
        {
          "internalType": "address",
          "name": "",
          "type": "address"
        }
      ],
      "name": "securityDeposits",
      "outputs": [
        {
          "internalType": "uint256",
          "name": "",
          "type": "uint256"
        }
      ],
      "stateMutability": "view",
      "type": "function",
      "constant": true
    },
    {
      "inputs": [],
      "name": "transporter",
      "outputs": [
        {
          "internalType": "address payable",
          "name": "",
          "type": "address"
        }
      ],
      "stateMutability": "view",
      "type": "function",
      "constant": true
    },
    {
      "inputs": [
        {
          "internalType": "uint256",
          "name": "",
          "type": "uint256"
        }
      ],
      "name": "transporterAddresses",
      "outputs": [
        {
          "internalType": "address",
          "name": "",
          "type": "address"
        }
      ],
      "stateMutability": "view",
      "type": "function",
      "constant": true
    },
    {
      "inputs": [],
      "name": "transporterCount",
      "outputs": [
        {
          "internalType": "uint32",
          "name": "",
          "type": "uint32"
        }
      ],
      "stateMutability": "view",
      "type": "function",
      "constant": true
    },
    {
      "inputs": [
        {
          "internalType": "address",
          "name": "",
          "type": "address"
        }
      ],
      "name": "transporters",
      "outputs": [
        {
          "internalType": "uint256",
          "name": "",
          "type": "uint256"
        }
      ],
      "stateMutability": "view",
      "type": "function",
      "constant": true
    },
    {
      "inputs": [
        {
          "internalType": "bytes32",
          "name": "",
          "type": "bytes32"
        }
      ],
      "name": "usedMemoHash",
      "outputs": [
        {
          "internalType": "bool",
          "name": "",
          "type": "bool"
        }
      ],
      "stateMutability": "view",
      "type": "function",
      "constant": true
    },
    {
      "inputs": [],
      "name": "valueCommitment",
      "outputs": [
        {
          "internalType": "bytes32",
          "name": "",
          "type": "bytes32"
        }
      ],
      "stateMutability": "view",
      "type": "function",
      "constant": true
    },
    {
      "inputs": [],
      "name": "valueRangeProof",
      "outputs": [
        {
          "internalType": "bytes",
          "name": "",
          "type": "bytes"
        }
      ],
      "stateMutability": "view",
      "type": "function",
      "constant": true
    },
    {
      "inputs": [],
      "name": "vcCid",
      "outputs": [
        {
          "internalType": "string",
          "name": "",
          "type": "string"
        }
      ],
      "stateMutability": "view",
      "type": "function",
      "constant": true
    },
    {
      "stateMutability": "payable",
      "type": "receive",
      "payable": true
    },
    {
      "inputs": [
        {
          "internalType": "bool",
          "name": "_enabled",
          "type": "bool"
        }
      ],
      "name": "setPublicEnabled",
      "outputs": [],
      "stateMutability": "nonpayable",
      "type": "function"
    },
    {
      "inputs": [
        {
          "internalType": "bool",
          "name": "_enabled",
          "type": "bool"
        }
      ],
      "name": "setPrivateEnabled",
      "outputs": [],
      "stateMutability": "nonpayable",
      "type": "function"
    },
    {
      "inputs": [],
      "name": "pauseByFactory",
      "outputs": [],
      "stateMutability": "nonpayable",
      "type": "function"
    },
    {
      "inputs": [],
      "name": "isStopped",
      "outputs": [
        {
          "internalType": "bool",
          "name": "",
          "type": "bool"
        }
      ],
      "stateMutability": "view",
      "type": "function",
      "constant": true
    },
    {
      "inputs": [
        {
          "internalType": "uint256",
          "name": "value",
          "type": "uint256"
        },
        {
          "internalType": "bytes32",
          "name": "salt",
          "type": "bytes32"
        }
      ],
      "name": "computeCommitment",
      "outputs": [
        {
          "internalType": "bytes32",
          "name": "",
          "type": "bytes32"
        }
      ],
      "stateMutability": "pure",
      "type": "function",
      "constant": true
    },
    {
      "inputs": [
        {
          "internalType": "uint256",
          "name": "_id",
          "type": "uint256"
        },
        {
          "internalType": "string",
          "name": "_name",
          "type": "string"
        },
        {
          "internalType": "bytes32",
          "name": "_priceCommitment",
          "type": "bytes32"
        },
        {
          "internalType": "address",
          "name": "_owner",
          "type": "address"
        },
        {
          "internalType": "uint256",
          "name": "_productPrice",
          "type": "uint256"
        },
        {
          "internalType": "address",
          "name": "_factory",
          "type": "address"
        }
      ],
      "name": "initialize",
      "outputs": [],
      "stateMutability": "nonpayable",
      "type": "function"
    },
    {
      "inputs": [
        {
          "internalType": "uint256",
          "name": "priceWei",
          "type": "uint256"
        }
      ],
      "name": "setPublicPrice",
      "outputs": [],
      "stateMutability": "nonpayable",
      "type": "function"
    },
    {
      "inputs": [
        {
          "internalType": "uint256",
          "name": "priceWei",
          "type": "uint256"
        },
        {
          "internalType": "bytes32",
          "name": "commitment",
          "type": "bytes32"
        }
      ],
      "name": "setPublicPriceWithCommitment",
      "outputs": [],
      "stateMutability": "nonpayable",
      "type": "function"
    },
    {
      "inputs": [
        {
          "internalType": "string",
          "name": "vcCID",
          "type": "string"
        }
      ],
      "name": "confirmOrder",
      "outputs": [],
      "stateMutability": "nonpayable",
      "type": "function"
    },
    {
      "inputs": [
        {
          "internalType": "string",
          "name": "vcCID",
          "type": "string"
        },
        {
          "internalType": "bytes32",
          "name": "purchaseTxHashCommitment",
          "type": "bytes32"
        }
      ],
      "name": "confirmOrderWithCommitment",
      "outputs": [],
      "stateMutability": "nonpayable",
      "type": "function"
    },
    {
      "inputs": [
        {
          "internalType": "string",
          "name": "cid",
          "type": "string"
        }
      ],
      "name": "updateVcCid",
      "outputs": [],
      "stateMutability": "nonpayable",
      "type": "function"
    },
    {
      "inputs": [
        {
          "internalType": "string",
          "name": "cid",
          "type": "string"
        },
        {
          "internalType": "bytes32",
          "name": "txHashCommitment",
          "type": "bytes32"
        }
      ],
      "name": "updateVcCidAfterDelivery",
      "outputs": [],
      "stateMutability": "nonpayable",
      "type": "function"
    },
    {
      "inputs": [
        {
          "internalType": "bytes32",
          "name": "_commitment",
          "type": "bytes32"
        },
        {
          "internalType": "bytes32",
          "name": "_valueCommitment",
          "type": "bytes32"
        },
        {
          "internalType": "bytes",
          "name": "_valueRangeProof",
          "type": "bytes"
        }
      ],
      "name": "depositPurchasePrivate",
      "outputs": [],
      "stateMutability": "payable",
      "type": "function",
      "payable": true
    },
    {
      "inputs": [],
      "name": "depositPurchase",
      "outputs": [],
      "stateMutability": "payable",
      "type": "function",
      "payable": true
    },
    {
      "inputs": [],
      "name": "purchasePublic",
      "outputs": [],
      "stateMutability": "payable",
      "type": "function",
      "payable": true
    },
    {
      "inputs": [],
      "name": "publicPurchase",
      "outputs": [],
      "stateMutability": "payable",
      "type": "function",
      "payable": true
    },
    {
      "inputs": [],
      "name": "withdrawProductPrice",
      "outputs": [],
      "stateMutability": "nonpayable",
      "type": "function"
    },
    {
      "inputs": [],
      "name": "cancelDelivery",
      "outputs": [],
      "stateMutability": "nonpayable",
      "type": "function"
    },
    {
      "inputs": [
        {
          "internalType": "address payable",
          "name": "_transporter",
          "type": "address"
        }
      ],
      "name": "setTransporter",
      "outputs": [],
      "stateMutability": "payable",
      "type": "function",
      "payable": true
    },
    {
      "inputs": [
        {
          "internalType": "uint256",
          "name": "_feeInWei",
          "type": "uint256"
        }
      ],
      "name": "createTransporter",
      "outputs": [],
      "stateMutability": "nonpayable",
      "type": "function"
    },
    {
      "inputs": [],
      "name": "securityDeposit",
      "outputs": [],
      "stateMutability": "payable",
      "type": "function",
      "payable": true
    },
    {
      "inputs": [],
      "name": "getAllTransporters",
      "outputs": [
        {
          "internalType": "address[]",
          "name": "",
          "type": "address[]"
        },
        {
          "internalType": "uint256[]",
          "name": "",
          "type": "uint256[]"
        }
      ],
      "stateMutability": "view",
      "type": "function",
      "constant": true
    },
    {
      "inputs": [],
      "name": "checkAndDeleteProduct",
      "outputs": [],
      "stateMutability": "nonpayable",
      "type": "function"
    },
    {
      "inputs": [
        {
          "internalType": "uint256",
          "name": "revealedValue",
          "type": "uint256"
        },
        {
          "internalType": "bytes32",
          "name": "blinding",
          "type": "bytes32"
        }
      ],
      "name": "verifyRevealedValue",
      "outputs": [
        {
          "internalType": "bool",
          "name": "",
          "type": "bool"
        }
      ],
      "stateMutability": "nonpayable",
      "type": "function"
    },
    {
      "inputs": [
        {
          "internalType": "uint256",
          "name": "revealedValue",
          "type": "uint256"
        },
        {
          "internalType": "bytes32",
          "name": "blinding",
          "type": "bytes32"
        },
        {
          "internalType": "string",
          "name": "vcCID",
          "type": "string"
        }
      ],
      "name": "revealAndConfirmDelivery",
      "outputs": [],
      "stateMutability": "nonpayable",
      "type": "function"
    },
    {
      "inputs": [],
      "name": "timeout",
      "outputs": [],
      "stateMutability": "nonpayable",
      "type": "function"
    },
    {
      "inputs": [],
      "name": "sellerTimeout",
      "outputs": [],
      "stateMutability": "nonpayable",
      "type": "function"
    },
    {
      "inputs": [],
      "name": "bidTimeout",
      "outputs": [],
      "stateMutability": "nonpayable",
      "type": "function"
    },
    {
      "inputs": [],
      "name": "withdrawBid",
      "outputs": [],
      "stateMutability": "nonpayable",
      "type": "function"
    },
    {
      "inputs": [
        {
          "internalType": "uint256",
          "name": "_productId",
          "type": "uint256"
        },
        {
          "internalType": "bytes32",
          "name": "_memoHash",
          "type": "bytes32"
        },
        {
          "internalType": "bytes32",
          "name": "_railgunTxRef",
          "type": "bytes32"
        }
      ],
      "name": "recordPrivatePayment",
      "outputs": [],
      "stateMutability": "nonpayable",
      "type": "function"
    },
    {
      "inputs": [],
      "name": "hasPrivatePayment",
      "outputs": [
        {
          "internalType": "bool",
          "name": "",
          "type": "bool"
        }
      ],
      "stateMutability": "view",
      "type": "function",
      "constant": true
    },
    {
      "inputs": [],
      "name": "getPrivatePaymentDetails",
      "outputs": [
        {
          "internalType": "bytes32",
          "name": "memoHash",
          "type": "bytes32"
        },
        {
          "internalType": "bytes32",
          "name": "railgunTxRef",
          "type": "bytes32"
        },
        {
          "internalType": "address",
          "name": "recorder",
          "type": "address"
        }
      ],
      "stateMutability": "view",
      "type": "function",
      "constant": true
    },
    {
      "inputs": [],
      "name": "price",
      "outputs": [
        {
          "internalType": "uint256",
          "name": "",
          "type": "uint256"
        }
      ],
      "stateMutability": "view",
      "type": "function",
      "constant": true
    }
  ],
  "bytecode": "0x6080604052600e805462ffff00191662010100179055348015610020575f80fd5b5060015f556144a4806100325f395ff3fe608060405260043610610408575f3560e01c80638da5cb5b11610212578063c627525511610122578063e39c2092116100aa578063e995478e11610079578063e995478e146104d3578063f117e40914610bea578063f3cc0f1f14610c03578063f778ad0814610c18578063fa949a0114610c755761042e565b8063e39c209214610ba4578063e42b021214610bac578063e53bbdbe14610bcb578063e7067c49146104d35761042e565b8063d765d3c6116100f1578063d765d3c614610b12578063d82a5cc614610b27578063d8f133f914610b46578063dc2a7e5f14610b65578063e25bd15814610b795761042e565b8063c627525514610a83578063c9352b7e14610aa2578063d018d98914610acd578063d5d5f8e114610aec5761042e565b8063b03b8035116101a5578063bbdfbfba11610174578063bbdfbfba146109c9578063bc1e96cb146109e9578063bfaf812914610a17578063c226366b14610a2b578063c45a015514610a5f5761042e565b8063b03b80351461093e578063b1c9fe6e1461095d578063b5df610f1461098a578063b66c5fca1461099e5761042e565b80639b001f45116101e15780639b001f45146108e45780639c8dadae14610902578063a035b1fe14610915578063af640d0f146109295761042e565b80638da5cb5b1461087d57806394090d0b1461089c5780639497d3ae146108b05780639689aa0d146108c55761042e565b8063487842c81161031857806367825be8116102a0578063783100ba1161026f578063783100ba146107d55780637af3a1af146107f45780637dea647414610813578063879f9c961461083e5780638c1018881461085e5761042e565b806367825be81461074957806370dea79a146107685780637150d8ae1461077c57806377db5719146107b35761042e565b8063533a559b116102e7578063533a559b146106cd5780635920172a146106e15780635d46381014610700578063627806271461071557806364eeaa9d146107345761042e565b8063487842c8146106635780634e9e916814610682578063516f9b911461069657806352d93f70146106b95761042e565b806329dac7c61161039b578063377032461161036a57806337703246146105cf5780633ace041a146105f35780633cf131e7146106125780633e73ec1d146106265780633f683b6a146106455761042e565b806329dac7c6146105445780632b8109d5146105675780632d8ba85e1461059557806337271cc7146105bb5761042e565b8063220e5ab3116103d7578063220e5ab3146104cb57806322c3b9f3146104d357806325901b8a146104fe57806325d3d0e3146105065761042e565b806306fdde0314610446578063093f3ccb146104705780630d76229f146104ae5780630ff26c8d146104b85761042e565b3661042e5760405162461bcd60e51b815260040161042590613b66565b60405180910390fd5b60405162461bcd60e51b815260040161042590613b66565b348015610451575f80fd5b5061045a610c94565b6040516104679190613bf5565b60405180910390f35b34801561047b575f80fd5b5061049e61048a366004613c0e565b60176020525f908152604090205460ff1681565b6040519015158152602001610467565b6104b6610d20565b005b6104b66104c6366004613c25565b610fd8565b6104b6610ffb565b3480156104de575f80fd5b506104e96202a30081565b60405163ffffffff9091168152602001610467565b6104b6611014565b348015610511575f80fd5b5060065461052c90600160a81b90046001600160401b031681565b6040516001600160401b039091168152602001610467565b34801561054f575f80fd5b506007546104e990600160501b900463ffffffff1681565b348015610572575f80fd5b5061049e610581366004613cb1565b60116020525f908152604090205460ff1681565b3480156105a0575f80fd5b50600b546105ae9060ff1681565b6040516104679190613ce0565b3480156105c6575f80fd5b506104b6611124565b3480156105da575f80fd5b506001545f90815260156020526040902054151561049e565b3480156105fe575f80fd5b506104b661060d366004613d96565b611134565b34801561061d575f80fd5b506104b661117c565b348015610631575f80fd5b506104b6610640366004613dcf565b61118c565b348015610650575f80fd5b50600e546301000000900460ff1661049e565b34801561066e575f80fd5b506104b661067d366004613df8565b6111d7565b34801561068d575f80fd5b506104b661142b565b3480156106a1575f80fd5b506106ab600d5481565b604051908152602001610467565b3480156106c4575f80fd5b5061045a611470565b3480156106d8575f80fd5b506104b661147d565b3480156106ec575f80fd5b506106ab6106fb366004613df8565b61148d565b34801561070b575f80fd5b506106ab600c5481565b348015610720575f80fd5b5060075461052c906001600160401b031681565b34801561073f575f80fd5b506106ab60195481565b348015610754575f80fd5b506104b6610763366004613e18565b6114bc565b348015610773575f80fd5b506104b6611600565b348015610787575f80fd5b5060055461079b906001600160a01b031681565b6040516001600160a01b039091168152602001610467565b3480156107be575f80fd5b506107c761163a565b604051610467929190613e59565b3480156107e0575f80fd5b506104b66107ef366004613edb565b6117a2565b3480156107ff575f80fd5b506104b661080e366004613edb565b611826565b34801561081e575f80fd5b506106ab61082d366004613cb1565b600f6020525f908152604090205481565b348015610849575f80fd5b5060075461049e90600160401b900460ff1681565b348015610869575f80fd5b5061049e610878366004613df8565b61189d565b348015610888575f80fd5b5060045461079b906001600160a01b031681565b3480156108a7575f80fd5b506104b66118bb565b3480156108bb575f80fd5b506106ab60095481565b3480156108d0575f80fd5b506104b66108df366004613e18565b6118f5565b3480156108ef575f80fd5b50600e5461049e90610100900460ff1681565b6104b6610910366004613cb1565b611aa7565b348015610920575f80fd5b506009546106ab565b348015610934575f80fd5b506106ab60015481565b348015610949575f80fd5b50600e5461049e9062010000900460ff1681565b348015610968575f80fd5b5060065461097d90600160a01b900460ff1681565b6040516104679190613f0e565b348015610995575f80fd5b506104b6611cb3565b3480156109a9575f80fd5b506106ab6109b8366004613c0e565b60166020525f908152604090205481565b3480156109d4575f80fd5b5060075461049e90600160481b900460ff1681565b3480156109f4575f80fd5b5061049e610a03366004613c0e565b60146020525f908152604090205460ff1681565b348015610a22575f80fd5b5061045a611cc3565b348015610a36575f80fd5b5061079b610a45366004613c0e565b60186020525f90815260409020546001600160a01b031681565b348015610a6a575f80fd5b5060135461079b9061010090046001600160a01b031681565b348015610a8e575f80fd5b506104b6610a9d366004613c0e565b611cd0565b348015610aad575f80fd5b506106ab610abc366004613c0e565b60156020525f908152604090205481565b348015610ad8575f80fd5b506104b6610ae7366004613f1c565b611e2a565b348015610af7575f80fd5b50610b00601481565b60405160ff9091168152602001610467565b348015610b1d575f80fd5b506106ab60035481565b348015610b32575f80fd5b506104b6610b41366004613f67565b611e3d565b348015610b51575f80fd5b506104b6610b60366004613c0e565b61202f565b348015610b70575f80fd5b506104b6612040565b348015610b84575f80fd5b506106ab610b93366004613cb1565b60106020525f908152604090205481565b6104b661207a565b348015610bb7575f80fd5b5060065461079b906001600160a01b031681565b348015610bd6575f80fd5b506104b6610be5366004613d96565b61208a565b348015610bf5575f80fd5b50600e5461049e9060ff1681565b348015610c0e575f80fd5b506106ab60085481565b348015610c23575f80fd5b506001545f90815260156020908152604080832054601683528184205460189093529220546001600160a01b03166040805193845260208401929092526001600160a01b031690820152606001610467565b348015610c80575f80fd5b5061079b610c8f366004613c0e565b61209b565b60028054610ca190613fe1565b80601f0160208091040260200160405190810160405280929190818152602001828054610ccd90613fe1565b8015610d185780601f10610cef57610100808354040283529160200191610d18565b820191905f5260205f20905b815481529060010190602001808311610cfb57829003601f168201915b505050505081565b610d286120c3565b600e546301000000900460ff1615610d525760405162461bcd60e51b815260040161042590614019565b6004546001600160a01b03163303610d7d5760405163241b8ad160e01b815260040160405180910390fd5b600754600160401b900460ff1615610da857604051630cd9ed5560e21b815260040160405180910390fd5b5f600654600160a01b900460ff166005811115610dc757610dc7613ccc565b14610de5576040516338961af360e21b815260040160405180910390fd5b600e54610100900460ff16610e0d57604051632f4be5eb60e01b815260040160405180910390fd5b600c545f03610e2f57604051633696af9160e21b815260040160405180910390fd5b600c543414610e515760405163cd3cb2bb60e01b815260040160405180910390fd5b600580546001600160a01b03191633908117909155600b805460ff191660011790556007805460ff60401b1916600160401b1790556006805434600955600160a01b6001600160401b034216600160a81b0260ff60a01b19811668ffffffffffffffffff60a01b19841617821790935560405167ffffffffffffffff60a81b199092169092179190910460ff1691907f220b3f39ae9f57a1b885de7bec8154e509ab2135e8668d7fe6d2529377e610fa905f90a2600654600160a01b900460ff166005811115610f2357610f23613ccc565b816005811115610f3557610f35613ccc565b6001546040515f8051602061444f83398151915290610f5990339042905f9061403a565b60405180910390a46005546004546001546006546003546007546040516001600160a01b039687169695909516945f805160206143ef83398151915293610fc49360ff600160a01b90920482169342939192600160401b8204811692600160481b909204169061405b565b60405180910390a450610fd660015f55565b565b610fe06120c3565b610fec848484846120eb565b610ff560015f55565b50505050565b6110036120c3565b61100b6122f5565b610fd660015f55565b61101c6120c3565b600754600160401b900460ff161561104757604051630cd9ed5560e21b815260040160405180910390fd5b6004546001600160a01b031633036110725760405163241b8ad160e01b815260040160405180910390fd5b60095434146110945760405163cd3cb2bb60e01b815260040160405180910390fd5b6007805460ff60401b1916600160401b179055600580546001600160a01b0319163317815560068054600160a01b6001600160401b034216600160a81b0260ff60a01b19811668ffffffffffffffffff60a01b1984161782179384905567ffffffffffffffff60a81b1990921690911781900460ff908116939190920490911690811115610f2357610f23613ccc565b61112c6120c3565b61100b612381565b61113c6120c3565b600e546301000000900460ff16156111665760405162461bcd60e51b815260040161042590614019565b611170815f6118f5565b61117960015f55565b50565b6111846120c3565b61100b612559565b6111946120c3565b600e546301000000900460ff16156111be5760405162461bcd60e51b815260040161042590614019565b6111c9838383612621565b6111d260015f55565b505050565b6004546001600160a01b0316331461120257604051635ec8235160e01b815260040160405180910390fd5b600e546301000000900460ff161561122c5760405162461bcd60e51b815260040161042590614019565b5f600654600160a01b900460ff16600581111561124b5761124b613ccc565b14611269576040516338961af360e21b815260040160405180910390fd5b600e5460ff161561128d5760405163d81ee33560e01b815260040160405180910390fd5b600c54156112cb5760405162461bcd60e51b815260206004820152600b60248201526a105b1c9958591e481cd95d60aa1b6044820152606401610425565b815f036113075760405162461bcd60e51b815260206004820152600a6024820152695a65726f20707269636560b01b6044820152606401610425565b806113255760405163096f80dd60e01b815260040160405180910390fd5b600c829055600d819055600e8054600161ffff199091168415156101000260ff1916171790556004546040516bffffffffffffffffffffffff1930606090811b821660208401529290921b90911660348201525f9060480160408051601f198184030181528282528051602091820120908301869052908201819052915060600160408051808303601f190181529082905280516020918201206003558482527f7a14d7ccccfb09b683d7f1a147604c270932fb78b00f19d71b374a214c8ccd34910160405180910390a16001546040518381527fa4c1357de062a8c36aff89abdeb1edab5f2af92edb3cfc81ef3d6c7f0e4efd8f9060200160405180910390a2505050565b60135461010090046001600160a01b0316331461145b57604051631966391b60e11b815260040160405180910390fd5b600e805463ff00000019166301000000179055565b601a8054610ca190613fe1565b6114856120c3565b61100b6129f5565b604080516020808201859052818301849052825180830384018152606090920190925280519101205b92915050565b6114c46120c3565b6005546001600160a01b031633146114ef5760405163239700bf60e11b815260040160405180910390fd5b600754600160481b900460ff1661151957604051630a8bd16f60e21b815260040160405180910390fd5b6004600654600160a01b900460ff16600581111561153957611539613ccc565b14611557576040516338961af360e21b815260040160405180910390fd5b600a61156383826140db565b506005546001546040516001600160a01b03909216915f8051602061440f833981519152906115959086904290614196565b60405180910390a380156115f3576005546001546040516001600160a01b03909216918391907f07ec91b006de20b01230d0314504a9cd379fa4a69be957d909361218b5555dc2906115ea9087904290614196565b60405180910390a45b6115fc60015f55565b5050565b6116086120c3565b600e546301000000900460ff16156116325760405162461bcd60e51b815260040161042590614019565b61100b612a97565b60125460609081905f816001600160401b0381111561165b5761165b613cfa565b604051908082528060200260200182016040528015611684578160200160208202803683370190505b5090505f826001600160401b038111156116a0576116a0613cfa565b6040519080825280602002602001820160405280156116c9578160200160208202803683370190505b5090505f5b8381101561179757601281815481106116e9576116e96141b7565b905f5260205f20015f9054906101000a90046001600160a01b0316838281518110611716576117166141b7565b60200260200101906001600160a01b031690816001600160a01b03168152505060105f6012838154811061174c5761174c6141b7565b5f9182526020808320909101546001600160a01b031683528201929092526040019020548251839083908110611784576117846141b7565b60209081029190910101526001016116ce565b509094909350915050565b6004546001600160a01b031633146117cd57604051635ec8235160e01b815260040160405180910390fd5b600e8054821515620100000262ff0000199091161790556001546040517f13270f99fd1281e6166e67a1e45c9e865c7e8bb73742923160f06288f031a5a59061181b90841515815260200190565b60405180910390a250565b6004546001600160a01b0316331461185157604051635ec8235160e01b815260040160405180910390fd5b600e80548215156101000261ff00199091161790556001546040517fb3026627a4b39a1f926ed1429f9efd406f06fa04976211232fa3c9d83634a7de9061181b90841515815260200190565b5f6118a66120c3565b6118b08383612e02565b90506114b660015f55565b6118c36120c3565b600e546301000000900460ff16156118ed5760405162461bcd60e51b815260040161042590614019565b61100b612e8a565b6118fd6120c3565b600e546301000000900460ff16156119275760405162461bcd60e51b815260040161042590614019565b6001600654600160a01b900460ff16600581111561194757611947613ccc565b14611965576040516338961af360e21b815260040160405180910390fd5b600754600160401b900460ff1661198f576040516363aae7a360e01b815260040160405180910390fd5b6007805467ffffffffffffffff1916426001600160401b03161790556006805460ff60a01b1916600160a11b179055600a6119ca83826140db565b506004546001546040516001600160a01b03909216915f8051602061440f833981519152906119fc9086904290614196565b60405180910390a36001546004546005546003546040516001600160a01b0393841693909216917f55449ea4bfb1a49e3773400e2c2c21c966df568341289e891d06779ea079f5f191611a5291889042906141cb565b60405180910390a480156115f3576005546001546040516001600160a01b03909216918391907fc30c4829c5911507c323e48097928781d5ac5413b33d2d964d48378576cc84a6906115ea9087904290614196565b6004546001600160a01b03163314611ad257604051635ec8235160e01b815260040160405180910390fd5b611ada6120c3565b6002600654600160a01b900460ff166005811115611afa57611afa613ccc565b14611b18576040516338961af360e21b815260040160405180910390fd5b600754611b32906202a300906001600160401b0316614207565b6001600160401b0316421115611b5b57604051635cb46abd60e11b815260040160405180910390fd5b6001600160a01b0381165f9081526011602052604090205460ff16611b93576040516313c4b1bd60e21b815260040160405180910390fd5b6001600160a01b0381165f908152601060205260409020543414611bca576040516305d12ebd60e11b815260040160405180910390fd5b34600855600680546001600160a01b0383166001600160a81b031982168117600360a01b179283905560ff600160a01b6001600160a01b031990931690911782900481169291909104166005811115611c2557611c25613ccc565b816005811115611c3757611c37613ccc565b6001546040515f8051602061444f83398151915290611c5b90339042905f9061403a565b60405180910390a4816001600160a01b03166001547f25582717ccf09247d53d43c4b8ff09500ecb382c17ae26201bb69a21ea27932c42604051611ca191815260200190565b60405180910390a35061117960015f55565b611cbb6120c3565b61100b61305e565b600a8054610ca190613fe1565b6004546001600160a01b03163314611cfb57604051635ec8235160e01b815260040160405180910390fd5b600e546301000000900460ff1615611d255760405162461bcd60e51b815260040161042590614019565b5f600654600160a01b900460ff166005811115611d4457611d44613ccc565b14611d62576040516338961af360e21b815260040160405180910390fd5b600c5415611da05760405162461bcd60e51b815260206004820152600b60248201526a105b1c9958591e481cd95d60aa1b6044820152606401610425565b805f03611ddc5760405162461bcd60e51b815260206004820152600a6024820152695a65726f20707269636560b01b6044820152606401610425565b600c819055600e805461ff001916821515610100021790556040518181527f7a14d7ccccfb09b683d7f1a147604c270932fb78b00f19d71b374a214c8ccd349060200160405180910390a150565b611e326120c3565b6111c983838361312a565b60135460ff1615611e605760405162dc149f60e41b815260040160405180910390fd5b6001600160a01b038316611e8757604051633649397d60e21b815260040160405180910390fd5b84515f03611ea857604051632ef1310560e01b815260040160405180910390fd5b83611ec65760405163096f80dd60e01b815260040160405180910390fd5b855f03611ee6576040516315393ee960e01b815260040160405180910390fd5b336001600160a01b03821614611f0f57604051631966391b60e11b815260040160405180910390fd5b6013805460016001600160a81b03199091166101006001600160a01b038516021781179091558690556002611f4486826140db565b5060038490556009829055600480546001600160a01b0385166001600160a01b031991821681179092556007805460ff60401b191690819055600580549092169091556006805460ff60a01b191690819055600e805462ffff001916620101001790556001546040515f949391925f805160206143ef83398151915292611ff19260ff600160a01b90930483169242928d92600160401b8204831692600160481b9092049091169061405b565b60405180910390a45f806001546040515f8051602061444f8339815191529061201f90339042905f9061403a565b60405180910390a4505050505050565b6120376120c3565b6111708161327d565b6120486120c3565b600e546301000000900460ff16156120725760405162461bcd60e51b815260040161042590614019565b61100b61339d565b6120826120c3565b61100b611014565b6120926120c3565b611170816135da565b601281815481106120aa575f80fd5b5f918252602090912001546001600160a01b0316905081565b60025f54036120e557604051633ee5aeb560e01b815260040160405180910390fd5b60025f55565b600754600160401b900460ff161561211657604051630cd9ed5560e21b815260040160405180910390fd5b6004546001600160a01b031633036121415760405163241b8ad160e01b815260040160405180910390fd5b60095434146121635760405163cd3cb2bb60e01b815260040160405180910390fd5b6007805460ff60401b1916600160401b179055600580546001600160a01b0319163317815560068054600160a01b6001600160401b034216600160a81b0260ff60a01b19811668ffffffffffffffffff60a01b1984161782179384905567ffffffffffffffff60a81b1990921690911781900460ff9081169391909204909116908111156121f3576121f3613ccc565b81600581111561220557612205613ccc565b6001545f8051602061444f83398151915233428a6040516122289392919061403a565b60405180910390a460038590556019849055601a61224783858361422e565b507f4a9b2fdb1ca123b2dcd619b96b8d7d931170150da9a5022fd88f61778ea02eee84848460405161227b939291906142e8565b60405180910390a16005546004546001546006546003546007546040516001600160a01b039687169695909516945f805160206143ef833981519152936122e69360ff600160a01b90920482169342939192600160401b8204811692600160481b909204169061405b565b60405180910390a45050505050565b335f9081526011602052604090205460ff166123245760405163aba4733960e01b815260040160405180910390fd5b335f908152600f60205260408120805434929061234290849061431d565b909155505060015460405142815233907fea6a3ee0d29a04c042fa4caf6ef5071cba5a25732d9eb227aa3a86b3f6b4cabc9060200160405180910390a3565b6002600654600160a01b900460ff1660058111156123a1576123a1613ccc565b146123bf576040516338961af360e21b815260040160405180910390fd5b600654336001600160a01b03909116036123ec57604051636541c70760e01b815260040160405180910390fd5b335f90815260106020908152604080832054600f9092529091205481158015612413575080155b156124315760405163aba4733960e01b815260040160405180910390fd5b335f908152601060209081526040808320839055600f825280832083905560119091529020805460ff19169055600780545f1963ffffffff600160501b808404821692909201160263ffffffff60501b1990911617905580801561251c576040515f90339083908381818185875af1925050503d805f81146124ce576040519150601f19603f3d011682016040523d82523d5f602084013e6124d3565b606091505b50509050806124f557604051633c31275160e21b815260040160405180910390fd5b60015460405142815233905f8051602061442f8339815191529060200160405180910390a3505b60015460405142815233907f0a3d3ac11cf502aaab4363b2a94047d52b45ee3c72068ff8f036cea2c899dae79060200160405180910390a3505050565b600754600160401b900460ff16612583576040516363aae7a360e01b815260040160405180910390fd5b6006546125a390600160a81b90046001600160401b03166202a300614207565b6001600160401b03164210156125cc57604051635af3776760e11b815260040160405180910390fd5b6004546001546040516001600160a01b03909216917f61c21c5e720c70cb40ef6f4a344ba3a38385764279e61646797d7195862b103890612611906002904290614330565b60405180910390a3610fd6613643565b6001548314612643576040516329895ce760e01b815260040160405180910390fd5b81612661576040516307b51a9f60e01b815260040160405180910390fd5b8061267f57604051635716645360e11b815260040160405180910390fd5b5f600654600160a01b900460ff16600581111561269e5761269e613ccc565b146126bc57604051630cd9ed5560e21b815260040160405180910390fd5b600e5462010000900460ff166126e55760405163c7d1c8a360e01b815260040160405180910390fd5b6001545f908152601560205260409020541561271457604051630d70a0e360e41b815260040160405180910390fd5b5f8281526017602052604090205460ff161561274357604051638524c8b760e01b815260040160405180910390fd5b5f8281526014602052604090205460ff16156127725760405163bde56c7560e01b815260040160405180910390fd5b6005546001600160a01b0316331480159061279857506004546001600160a01b03163314155b156127b65760405163721c7c6760e11b815260040160405180910390fd5b600580546001600160a01b03191633179055600b80546002919060ff191660018302179055506007805460ff60401b1916600160401b179055600680546001600160401b034216600160a81b0267ffffffffffffffff60a81b199091161781555f838152601460209081526040808320805460ff199081166001908117909255601784528285208054909116821790558054845260158352818420879055805484526016835281842086905580548452601890925290912080546001600160a01b031916331790558154600160a01b80820460ff16939160ff60a01b19169083021790555060055460408051858152602081018590526001600160a01b03909216917faa3d8f202adfb9a31da35e239cd3368d44e926ce49783b25aa1ce5eefbda0ee4910160405180910390a2600654600160a01b900460ff16600581111561290157612901613ccc565b81600581111561291357612913613ccc565b6001545f8051602061444f8339815191523342886040516129369392919061403a565b60405180910390a46005546004546001546006546003546007546040516001600160a01b039687169695909516945f805160206143ef833981519152936129a19360ff600160a01b90920482169342939192600160401b8204811692600160481b909204169061405b565b60405180910390a46001546040805185815260208101859052428183015290513392917f74625d9316cf25c353464f0bd06b4e08bee3457e0ff90064a4d775bf7b4ad41f919081900360600190a350505050565b6005546001600160a01b03163314612a205760405163239700bf60e11b815260040160405180910390fd5b6006546001600160a01b0316612a4957604051632dec64c560e21b815260040160405180910390fd5b600754600160401b900460ff16612a73576040516363aae7a360e01b815260040160405180910390fd5b600554600480546001600160a01b0319166001600160a01b03909216919091179055565b600754600160481b900460ff1615612ac25760405163b9f7965360e01b815260040160405180910390fd5b600754612adc906202a300906001600160401b0316614207565b6001600160401b03164211612b035760405162792a1f60e41b815260040160405180910390fd5b60068054600560a01b60ff60a01b19821617909155600b5460ff600160a01b909204821691600191166002811115612b3d57612b3d613ccc565b03612d65576007545f9062015180906001600160401b039081166202a30001164203046001019050600a811115612b725750600a5b6006546001600160a01b03165f908152600f60205260409020546064600a838302020490811115612bb957506006546001600160a01b03165f908152600f60205260409020545b600980545f9182905560055460405191840192916001600160a01b039091169083908381818185875af1925050503d805f8114612c11576040519150601f19603f3d011682016040523d82523d5f602084013e612c16565b606091505b5050905080612c3857604051634de99c0760e11b815260040160405180910390fd5b6001546005546040514281526001600160a01b03909116905f8051602061442f8339815191529060200160405180910390a38215612d60576005546040515f916001600160a01b03169085908381818185875af1925050503d805f8114612cba576040519150601f19603f3d011682016040523d82523d5f602084013e612cbf565b606091505b5050905080612cf757600554604051630e21dcbb60e11b81526001600160a01b03909116600482015260248101859052604401610425565b60015460065460408051818152600d818301526c4c6174652064656c697665727960981b606082015242602082015290516001600160a01b03909216917f121265c9c15b11db7d068fa4928daf00cea4820d259aa348a792e4e642d3a4a29181900360800190a3505b505050505b600654600160a01b900460ff166005811115612d8357612d83613ccc565b816005811115612d9557612d95613ccc565b6001546040515f8051602061444f83398151915290612db990339042905f9061403a565b60405180910390a46001546040805142808252602082015233917fffebe5f1356068669eb471975def148f6b65e9e68117515891d2c0d932ff40fd91015b60405180910390a350565b5f808383604051602001612e20929190918252602082015260400190565b60408051808303601f19018152828252805160209182012060035460015481865290821492850183905242938501939093529350917fe4dbe3c95b804cca033d1b7717ee444525456588ef5b4dba2e2cdeb5ec77fe329060600160405180910390a2949350505050565b6002600654600160a01b900460ff166005811115612eaa57612eaa613ccc565b14612ec8576040516338961af360e21b815260040160405180910390fd5b600754612ee2906202a300906001600160401b0316614207565b6001600160401b03164211612f0a57604051635cb46abd60e11b815260040160405180910390fd5b60068054600560a01b60ff60a01b19821617909155600b5460ff600160a01b909204821691600191166002811115612f4457612f44613ccc565b03612fff576009548015612ffd575f60098190556005546040516001600160a01b039091169083908381818185875af1925050503d805f8114612fa2576040519150601f19603f3d011682016040523d82523d5f602084013e612fa7565b606091505b5050905080612fc957604051634de99c0760e11b815260040160405180910390fd5b6001546005546040514281526001600160a01b03909116905f8051602061442f8339815191529060200160405180910390a3505b505b600654600160a01b900460ff16600581111561301d5761301d613ccc565b81600581111561302f5761302f613ccc565b6001546040515f8051602061444f8339815191529061305390339042905f9061403a565b60405180910390a450565b6004546001600160a01b0316331461308957604051635ec8235160e01b815260040160405180910390fd5b6006546001600160a01b03166130b257604051632dec64c560e21b815260040160405180910390fd5b600754600160401b900460ff166130dc576040516363aae7a360e01b815260040160405180910390fd5b6001546006546004546040514281526001600160a01b0392831692909116907f0df1f1239b8a2597f0d3ceecc8c3ca0d4ab8fe4f5ea14a770547e5c0c96329579060200160405180910390a4565b6005546001600160a01b031633146131555760405163239700bf60e11b815260040160405180910390fd5b6006546001600160a01b031661317e57604051632dec64c560e21b815260040160405180910390fd5b5f613189848461148d565b600d549091505f901561324857600c5485146131b85760405163052a400d60e31b815260040160405180910390fd5b6004546040516bffffffffffffffffffffffff1930606090811b821660208401529290921b90911660348201525f906048016040516020818303038152906040528051906020012090508085036132155760035483149150613242565b60408051602080820189905281830184905282518083038401815260609092019092528051910120831491505b5061324f565b5060035481145b8061326d5760405163052a400d60e31b815260040160405180910390fd5b613276836136ab565b5050505050565b6007546014600160501b90910463ffffffff16106132ae57604051637b43073f60e01b815260040160405180910390fd5b335f90815260106020526040902054156132db5760405163119b4fd360e11b815260040160405180910390fd5b335f81815260106020908152604080832085905560118252808320805460ff1916600190811790915560128054808301825594527fbb8a6a4669ba250d26cd7a459eca9d215f8307e33aebe50379bc5a3617ec344490930180546001600160a01b031916851790556007805463ffffffff600160501b808304821687019091160263ffffffff60501b19909116179055915491514281529192917fd048d43f3926fd7835ae7d2c9a42f174f52e84eefe016163a85477f281e31f299101612df7565b600754600160481b900460ff16156133c85760405163b9f7965360e01b815260040160405180910390fd5b6001600654600160a01b900460ff1660058111156133e8576133e8613ccc565b14613406576040516338961af360e21b815260040160405180910390fd5b600654613427906202a30090600160a81b90046001600160401b0316614207565b6001600160401b0316421161344f57604051630854dadf60e31b815260040160405180910390fd5b60068054600560a01b60ff60a01b19821617909155600b5460ff600160a01b90920482169160019116600281111561348957613489613ccc565b03613544576009548015613542575f60098190556005546040516001600160a01b039091169083908381818185875af1925050503d805f81146134e7576040519150601f19603f3d011682016040523d82523d5f602084013e6134ec565b606091505b505090508061350e57604051634de99c0760e11b815260040160405180910390fd5b6001546005546040514281526001600160a01b03909116905f8051602061442f8339815191529060200160405180910390a3505b505b600654600160a01b900460ff16600581111561356257613562613ccc565b81600581111561357457613574613ccc565b6001546040515f8051602061444f8339815191529061359890339042905f9061403a565b60405180910390a46001546040805142808252602082015233917fa18ab87de3da9694639c738b2cc01f1bc4693826051c6aefd4c51d3cfcc8fc109101612df7565b6004546001600160a01b0316331461360557604051635ec8235160e01b815260040160405180910390fd5b600a61361182826140db565b506004546001546040516001600160a01b03909216915f8051602061440f83398151915290612df79085904290614196565b61364e60025f613b1c565b5f6003819055600480546001600160a01b0319908116909155600780546005805490931690925560068054600894909455600168ffffffffffffffff0160a01b03199093169092556dffffffff00ff000000000000000019169055565b600754600160481b900460ff16156136d65760405163b9f7965360e01b815260040160405180910390fd5b6007546136f0906202a300906001600160401b0316614207565b6001600160401b0316421115613719576040516355293b2160e11b815260040160405180910390fd5b6007805469ff0000000000000000001916600160481b1790556006805460ff60a01b198116600160a21b179091556001545f90815260156020908152604080832054601690925290912054600b54600160a01b90930460ff90811693600291168181111561378957613789613ccc565b036138375781156137d7576001546040805184815260208101849052428183015290517f6d46ce96ac059308b001b30bc4cd5b3d43fc944846f0f41e58b576d8970541d39181900360600190a25b600654600160a01b900460ff1660058111156137f5576137f5613ccc565b83600581111561380757613807613ccc565b6001545f8051602061444f83398151915233428760405161382a9392919061403a565b60405180910390a4613a71565b6001600b5460ff16600281111561385057613850613ccc565b03613a58576009545f81900361387957604051637294708f60e11b815260040160405180910390fd5b6006546001600160a01b03165f908152600f60205260408120546008546138a0919061431d565b5f60098190556006546001600160a01b039081168252600f602052604080832083905560088390556004549051939450919291169084908381818185875af1925050503d805f811461390d576040519150601f19603f3d011682016040523d82523d5f602084013e613912565b606091505b505090508061394d5760048054604051630e21dcbb60e11b81526001600160a01b039091169181019190915260248101849052604401610425565b6006546001600160a01b03161580159061396657505f82115b156139f4576006546040515f916001600160a01b03169084908381818185875af1925050503d805f81146139b5576040519150601f19603f3d011682016040523d82523d5f602084013e6139ba565b606091505b50509050806139f257600654604051630e21dcbb60e11b81526001600160a01b03909116600482015260248101849052604401610425565b505b600654600160a01b900460ff166005811115613a1257613a12613ccc565b866005811115613a2457613a24613ccc565b6001546040515f8051602061444f83398151915290613a4890339042905f9061403a565b60405180910390a4505050613a71565b604051631df9041960e31b815260040160405180910390fd5b600a613a7d85826140db565b506004546001546040516001600160a01b03909216915f8051602061440f83398151915290613aaf9088904290614196565b60405180910390a36004546006546005546001546003546040516001600160a01b039586169594851694909316927fbd6e43445766f0f4da00c95fdfbc83f0b4e214cd186c8a1f88d95aa2bcfe7a8092613b0e9290918b9042906143bf565b60405180910390a450505050565b508054613b2890613fe1565b5f825580601f10613b37575050565b601f0160209004905f5260205f209081019061117991905b80821115613b62575f8155600101613b4f565b5090565b6020808252602c908201527f50726f64756374457363726f7720646f6573206e6f742061636365707420756e60408201526b0caf0e0cac6e8cac8408aa8960a31b606082015260800190565b5f81518084525f5b81811015613bd657602081850181015186830182015201613bba565b505f602082860101526020601f19601f83011685010191505092915050565b602081525f613c076020830184613bb2565b9392505050565b5f60208284031215613c1e575f80fd5b5035919050565b5f805f8060608587031215613c38575f80fd5b843593506020850135925060408501356001600160401b0380821115613c5c575f80fd5b818701915087601f830112613c6f575f80fd5b813581811115613c7d575f80fd5b886020828501011115613c8e575f80fd5b95989497505060200194505050565b6001600160a01b0381168114611179575f80fd5b5f60208284031215613cc1575f80fd5b8135613c0781613c9d565b634e487b7160e01b5f52602160045260245ffd5b6020810160038310613cf457613cf4613ccc565b91905290565b634e487b7160e01b5f52604160045260245ffd5b5f82601f830112613d1d575f80fd5b81356001600160401b0380821115613d3757613d37613cfa565b604051601f8301601f19908116603f01168101908282118183101715613d5f57613d5f613cfa565b81604052838152866020858801011115613d77575f80fd5b836020870160208301375f602085830101528094505050505092915050565b5f60208284031215613da6575f80fd5b81356001600160401b03811115613dbb575f80fd5b613dc784828501613d0e565b949350505050565b5f805f60608486031215613de1575f80fd5b505081359360208301359350604090920135919050565b5f8060408385031215613e09575f80fd5b50508035926020909101359150565b5f8060408385031215613e29575f80fd5b82356001600160401b03811115613e3e575f80fd5b613e4a85828601613d0e565b95602094909401359450505050565b604080825283519082018190525f906020906060840190828701845b82811015613e9a5781516001600160a01b031684529284019290840190600101613e75565b505050838103828501528451808252858301918301905f5b81811015613ece57835183529284019291840191600101613eb2565b5090979650505050505050565b5f60208284031215613eeb575f80fd5b81358015158114613c07575f80fd5b60068110613f0a57613f0a613ccc565b9052565b602081016114b68284613efa565b5f805f60608486031215613f2e575f80fd5b833592506020840135915060408401356001600160401b03811115613f51575f80fd5b613f5d86828701613d0e565b9150509250925092565b5f805f805f8060c08789031215613f7c575f80fd5b8635955060208701356001600160401b03811115613f98575f80fd5b613fa489828a01613d0e565b955050604087013593506060870135613fbc81613c9d565b92506080870135915060a0870135613fd381613c9d565b809150509295509295509295565b600181811c90821680613ff557607f821691505b60208210810361401357634e487b7160e01b5f52602260045260245ffd5b50919050565b6020808252600790820152661cdd1bdc1c195960ca1b604082015260600190565b6001600160a01b039390931683526020830191909152604082015260600190565b60a081016140698288613efa565b6020820195909552604081019390935290151560608301521515608090910152919050565b601f8211156111d2575f81815260208120601f850160051c810160208610156140b45750805b601f850160051c820191505b818110156140d3578281556001016140c0565b505050505050565b81516001600160401b038111156140f4576140f4613cfa565b614108816141028454613fe1565b8461408e565b602080601f83116001811461413b575f84156141245750858301515b5f19600386901b1c1916600185901b1785556140d3565b5f85815260208120601f198616915b828110156141695788860151825594840194600190910190840161414a565b508582101561418657878501515f19600388901b60f8161c191681555b5050505050600190811b01905550565b604081525f6141a86040830185613bb2565b90508260208301529392505050565b634e487b7160e01b5f52603260045260245ffd5b838152606060208201525f6141e36060830185613bb2565b9050826040830152949350505050565b634e487b7160e01b5f52601160045260245ffd5b6001600160401b03818116838216019080821115614227576142276141f3565b5092915050565b6001600160401b0383111561424557614245613cfa565b614259836142538354613fe1565b8361408e565b5f601f84116001811461428a575f85156142735750838201355b5f19600387901b1c1916600186901b178355613276565b5f83815260209020601f19861690835b828110156142ba578685013582556020948501946001909201910161429a565b50868210156142d6575f1960f88860031b161c19848701351681555b505060018560011b0183555050505050565b83815260406020820152816040820152818360608301375f818301606090810191909152601f909201601f1916010192915050565b808201808211156114b6576114b66141f3565b604081525f80845461434181613fe1565b806040860152606060018084165f8114614362576001811461437c576143aa565b60ff1985168884015283151560051b8801830195506143aa565b895f526020805f205f5b868110156143a15781548b8201870152908401908201614386565b8a018501975050505b50505050506020929092019290925292915050565b848152836020820152608060408201525f6143dd6080830185613bb2565b90508260608301529594505050505056fe9f1c960b9d97c217a683c8a48a6395f3fc1b01823e207e535d988dc4cd0023bfb1bee1c3a571801e777816ab27066e7259642a42d54fcf1be8b843020f3026d0219e38014d0e72b05ead8a8d0258ebea4be20d0c2c1de6c08974a08a6c917f6bee8a1379d3e8686481152030cad74b52f4db52184c8adacd896fb586930c0b25a2646970667358221220bf10f38a68d3bd65206086909ea84235ed43f7384fb3b457946e74c8d526f79564736f6c63430008150033",
  "immutableReferences": {},
  "source": "// SPDX-License-Identifier: MIT\npragma solidity ^0.8.0;\n\nimport \"@openzeppelin/contracts/utils/ReentrancyGuard.sol\";\n\n// Standardized custom errors for gas efficiency and consistency\n// Role-specific errors\nerror NotBuyer();\nerror NotSeller();\nerror NotTransporter();\nerror NotFactory();\n\n// Shared business logic errors\nerror InvalidPhase();\nerror InvalidProductId();\nerror InvalidOwnerAddress();\nerror EmptyName();\nerror ZeroPriceCommitment();\nerror CommitmentFrozen();\nerror AlreadyInitialized();\nerror AlreadyPurchased();\nerror AlreadyDelivered();\nerror AlreadyExists();\nerror AlreadyPaid();\nerror AlreadySelected();\n\n// State validation errors\nerror WrongPhase();\nerror TransporterNotSet();\nerror BidCapReached();\nerror NotRegistered();\nerror IncorrectFee();\nerror NotATransporter();\nerror OwnerCannotPurchase();\nerror NotPurchased();\nerror NotDelivered();\nerror TooEarlyToDelete();\nerror RevealInvalid();\nerror DeliveryTimeout();\nerror PriceZero();\nerror SellerWindowNotExpired();\nerror BiddingWindowNotExpired();\nerror NotYetTimeout();\n\n// Transfer and payment errors\nerror TransferFailed(address to, uint256 amount);\nerror BuyerRefundFailed();\nerror RefundFailed();\nerror IncorrectDeliveryFee();\n\n// Railgun and memo errors\nerror WrongProductId();\nerror ZeroMemoHash();\nerror ZeroTxRef();\nerror WrongPhaseForPayment();\nerror NoTransporter();\nerror MemoAlreadyUsed();\nerror PaymentAlreadyRecorded();\nerror NotParticipant();\n\n// --- Public Purchase Errors ---\nerror PublicDisabled();\nerror PrivateDisabled();\nerror PublicPriceNotSet();\nerror InvalidPurchaseMode();\n\ncontract ProductEscrow_Initializer is ReentrancyGuard {\n    // Packed storage for gas optimization - Group 1 (32 bytes)\n    uint256 public id;\n    string public name;\n    bytes32 public priceCommitment; // Confidential price commitment\n    \n    // Packed storage - Group 2 (32 bytes) - addresses pack together\n    address payable public owner;\n    address payable public buyer;\n    address payable public transporter;\n    \n    // Packed storage - Group 3 (32 bytes) - enum + timestamps + booleans + counters\n    enum Phase { Listed, Purchased, OrderConfirmed, Bound, Delivered, Expired }\n    Phase public phase;\n    uint64 public purchaseTimestamp; // Timestamp when purchase is confirmed\n    uint64 public orderConfirmedTimestamp; // Timestamp when seller confirms order\n    bool public purchased;\n    bool public delivered;\n    uint32 public transporterCount;\n    \n    // Packed storage - Group 4 (32 bytes) - constants pack together\n    uint32 public constant SELLER_WINDOW = 2 days; // Seller must confirm within 48h\n    uint32 public constant BID_WINDOW = 2 days;    // Bidding window after seller confirmation\n    uint32 public constant DELIVERY_WINDOW = 2 days; // Delivery window after transporter is set\n    uint8 public constant MAX_BIDS = 20; // Cap on number of transporter bids\n    \n    // Separate storage for larger values (don't pack with smaller types)\n    uint public deliveryFee;\n    uint public productPrice; // Explicitly track the buyer's deposit amount\n    string public vcCid; // IPFS hash or other identifier\n    \n    // --- Modes ---\n    enum PurchaseMode { None, Public, Private }\n    PurchaseMode public purchaseMode;\n    \n    // --- Pricing/toggles ---\n    uint256 public publicPriceWei;       // 0 = no public price set\n    bytes32 public publicPriceCommitment; // Optional Pedersen-style commitment to the public price\n    bool public commitmentFrozen;        // Commitment immutability flag (frozen after first set)\n    bool public publicEnabled = true;    // both on by default\n    bool public privateEnabled = true;\n    \n    // --- Lightweight kill-switch ---\n    bool private stopped;\n    \n    //  Admin functions to enable/disable purchase modes\n    function setPublicEnabled(bool _enabled) external onlySeller {\n        publicEnabled = _enabled;\n        emit PublicEnabledSet(id, _enabled);\n    }\n    \n    function setPrivateEnabled(bool _enabled) external onlySeller {\n        privateEnabled = _enabled;\n        emit PrivateEnabledSet(id, _enabled);\n    }\n    \n    // Mappings and arrays\n    mapping(address => uint) public securityDeposits; // Track each transporter's deposit\n    mapping(address => uint) public transporters; // Store transporter fees\n    mapping(address => bool) public isTransporter; // Membership mapping for transporters\n    address[] public transporterAddresses; // Store all transporter addresses\n    \n    // Initialization guard\n    bool private _initialized;\n    \n    // Factory access control (immutable after initialization)\n    address public factory;\n    \n    modifier onlyFactory() {\n        if (msg.sender != factory && factory != address(0)) revert NotFactory();\n        _;\n    }\n    \n\n    \n    modifier whenNotStopped() {\n        require(!stopped, \"stopped\");\n        _;\n    }\n    \n    // Cap on number of transporter bids to prevent DoS and high gas\n    function maxBids() internal view virtual returns (uint8) {\n        return MAX_BIDS;\n    }\n    \n    function pauseByFactory() external {\n        if (msg.sender != factory) revert NotFactory();\n        stopped = true;\n    }\n    \n    // Explicit getter for stopped state (UI probes this)\n    function isStopped() external view returns (bool) { \n        return stopped; \n    }\n    \n    // Canonical commitment computation helper (pure function for tests and UI)\n    function computeCommitment(uint256 value, bytes32 salt) public pure returns (bytes32) {\n        return keccak256(abi.encodePacked(value, salt));\n    }\n    \n    // Railgun Integration State\n    mapping(bytes32 => bool) public privatePayments; // Track recorded private payments by memoHash\n    mapping(uint256 => bytes32) public productMemoHashes; // Link productId to memoHash\n    mapping(uint256 => bytes32) public productRailgunTxRefs; // Link productId to Railgun tx reference\n    mapping(bytes32 => bool) public usedMemoHash; // Global reuse guard for memos\n    mapping(uint256 => address) public productPaidBy; // Track who recorded the payment (for audit)\n\n    // Confidential value commitment and proof (Pedersen + Bulletproofs)\n    bytes32 public valueCommitment;\n    bytes public valueRangeProof;\n    event ValueCommitted(bytes32 commitment, bytes proof);\n\n    modifier onlyBuyer() {\n        if (msg.sender != buyer) revert NotBuyer();\n        _;\n    }\n\n    modifier onlySeller() {\n        if (msg.sender != owner) revert NotSeller();\n        _;\n    }\n\n    modifier transporterSet() {\n        if (transporter == address(0)) revert TransporterNotSet();\n        _;\n    }\n\n    modifier onlyTransporter() {\n        if (msg.sender != transporter) revert NotTransporter();\n        _;\n    }\n\n    event OrderConfirmed(address indexed buyer, address indexed seller, uint256 indexed productId, bytes32 priceCommitment, string vcCID, uint256 timestamp);\n    event PurchaseConfirmedWithCommitment(uint256 indexed productId, bytes32 indexed purchaseTxHashCommitment, address indexed buyer, string vcCID, uint256 timestamp);\n    event TransporterCreated(address indexed transporter, uint256 indexed productId, uint256 timestamp);\n    event TransporterSecurityDeposit(address indexed transporter, uint256 indexed productId, uint256 timestamp);\n    event DeliveryConfirmed(address indexed buyer, address indexed transporter, address indexed seller, uint256 productId, bytes32 priceCommitment, string vcCID, uint256 timestamp);\n    event DeliveryConfirmedWithCommitment(uint256 indexed productId, bytes32 indexed txHashCommitment, address indexed buyer, string vcCID, uint256 timestamp);\n    event CancelDelivery(address indexed seller, address indexed transporter, uint256 indexed productId, uint256 timestamp);\n    event ProductDeleted(uint256 indexed productId, string productName, address indexed seller, uint256 timestamp);\n    event VcUpdated(uint256 indexed productId, string cid, address indexed seller, uint256 timestamp);\n    event ValueRevealed(uint256 indexed productId, bytes32 commitment, bool valid, uint256 timestamp);\n    event FundsTransferred(address indexed to, uint256 indexed productId, uint256 timestamp);\n    event PenaltyApplied(address indexed to, uint256 indexed productId, string reason, uint256 timestamp);\n    event DeliveryTimeoutEvent(address indexed caller, uint256 indexed productId, uint time, uint256 timestamp);\n    event SellerTimeout(address indexed caller, uint256 indexed productId, uint time, uint256 timestamp);\n    event PhaseChanged(uint256 indexed productId, Phase indexed from, Phase indexed to, address actor, uint256 timestamp, bytes32 ref);\n    event BidWithdrawn(address indexed transporter, uint256 indexed productId, uint256 timestamp);\n    event TransporterSelected(uint256 indexed productId, address indexed transporter, uint256 timestamp);\n    \n    // Comprehensive product state change event for frontend indexing\n    event PublicEnabledSet(uint256 indexed id, bool enabled);\n    event PrivateEnabledSet(uint256 indexed id, bool enabled);\n    \n    event ProductStateChanged(\n        uint256 indexed productId,\n        address indexed seller,\n        address indexed buyer,\n        Phase phase,\n        uint256 timestamp,\n        bytes32 priceCommitment,\n        bool purchased,\n        bool delivered\n    );\n    \n    // Railgun Integration Events\n    event PaidPrivately(uint256 indexed productId, bytes32 memoHash, bytes32 railgunTxRef, uint256 timestamp);\n    event PrivatePaymentRecorded(uint256 indexed productId, bytes32 memoHash, bytes32 railgunTxRef, address indexed recorder, uint256 timestamp);\n    \n    // --- Public Purchase Events ---\n    event PublicPriceSet(uint256 priceWei);\n    event PublicPriceCommitmentSet(uint256 indexed id, bytes32 commitment);\n    event PurchasedPublic(address indexed buyer);\n    event PurchasedPrivate(address indexed buyer, bytes32 memoHash, bytes32 railgunTxRef);\n\n    // Initialize function instead of constructor\n    function initialize(\n        uint256 _id,\n        string memory _name,\n        bytes32 _priceCommitment,\n        address _owner,\n        uint256 _productPrice,\n        address _factory\n    ) external {\n        if (_initialized) revert AlreadyInitialized();\n        if (_owner == address(0)) revert InvalidOwnerAddress();\n        if (bytes(_name).length == 0) revert EmptyName();\n        if (_priceCommitment == bytes32(0)) revert ZeroPriceCommitment();\n        if (_id == 0) revert InvalidProductId();\n        if (msg.sender != _factory) revert NotFactory(); //  Only factory can initialize\n        \n        _initialized = true;\n        \n        // Bind to factory (immutable after initialization)\n        factory = _factory;\n        \n        id = _id;\n        name = _name;\n        priceCommitment = _priceCommitment;\n        productPrice = _productPrice; //  Set the price during initialization\n        owner = payable(_owner);\n        purchased = false;\n        buyer = payable(address(0));\n        phase = Phase.Listed;\n        \n        //  Explicitly enable both purchase modes during initialization\n        publicEnabled = true;\n        privateEnabled = true;\n        \n        // Emit comprehensive state change event\n        emit ProductStateChanged(id, owner, buyer, phase, block.timestamp, priceCommitment, purchased, delivered);\n        \n        // Emit PhaseChanged event for initialization\n        emit PhaseChanged(id, Phase.Listed, Phase.Listed, msg.sender, block.timestamp, bytes32(0));\n    }\n\n    // Seller sets a public price (add)\n    function setPublicPrice(uint256 priceWei) external onlySeller whenNotStopped {\n        if (phase != Phase.Listed) revert WrongPhase();\n        if (publicPriceWei != 0) revert(\"Already set\");\n        if (priceWei == 0) revert(\"Zero price\");\n        \n        publicPriceWei = priceWei;\n        publicEnabled = (priceWei > 0); //  Auto-enable when price is set\n        emit PublicPriceSet(priceWei);\n    }\n\n    /// @notice Set the public price together with its Pedersen commitment.\n    /// @dev The commitment is frozen after first set to ensure immutability.\n    /// @param priceWei The public price in Wei\n    /// @param commitment The Pedersen commitment (bytes32) to the price\n    function setPublicPriceWithCommitment(uint256 priceWei, bytes32 commitment) external onlySeller whenNotStopped {\n        if (phase != Phase.Listed) revert WrongPhase();\n        if (commitmentFrozen) revert CommitmentFrozen(); // Explicit immutability check\n        if (publicPriceWei != 0) revert(\"Already set\"); // Defense in depth\n        if (priceWei == 0) revert(\"Zero price\");\n        if (commitment == bytes32(0)) revert ZeroPriceCommitment();\n\n        publicPriceWei = priceWei;\n        publicPriceCommitment = commitment; // Pedersen commitment (Ristretto point) for ZKP verification\n        publicEnabled = (priceWei > 0);\n        commitmentFrozen = true; // Freeze immediately after setting\n        \n        //  Also update priceCommitment for revealAndConfirmDelivery compatibility\n        // Compute deterministic blinding factor: keccak256(productAddress, sellerAddress)\n        bytes32 deterministicBlinding = keccak256(abi.encodePacked(address(this), owner));\n        // Compute keccak256 commitment: keccak256(priceWei, deterministicBlinding)\n        priceCommitment = keccak256(abi.encodePacked(priceWei, deterministicBlinding));\n\n        emit PublicPriceSet(priceWei);\n        emit PublicPriceCommitmentSet(id, commitment);\n    }\n    \n    // Simple order confirmation function (from working version)\n    function confirmOrder(string memory vcCID) public nonReentrant whenNotStopped {\n        confirmOrderWithCommitment(vcCID, bytes32(0));\n    }\n\n    /// @notice Confirm order with optional purchase TX hash commitment for transaction verification\n    /// @dev This allows the seller to include purchase TX hash commitment when confirming order\n    /// @param vcCID The VC CID to store on-chain\n    /// @param purchaseTxHashCommitment Optional purchase TX hash commitment for transaction verification (bytes32(0) if not provided)\n    function confirmOrderWithCommitment(string memory vcCID, bytes32 purchaseTxHashCommitment) public nonReentrant whenNotStopped {\n        if (phase != Phase.Purchased) revert WrongPhase();\n        if (!purchased) revert NotPurchased();\n        \n        orderConfirmedTimestamp = uint64(block.timestamp);\n        phase = Phase.OrderConfirmed;\n        \n        vcCid = vcCID;\n        emit VcUpdated(id, vcCID, owner, block.timestamp);\n        emit OrderConfirmed(buyer, owner, id, priceCommitment, vcCID, block.timestamp);\n        \n        // Emit commitment event for purchase transaction verification (Feature 1)\n        if (purchaseTxHashCommitment != bytes32(0)) {\n            emit PurchaseConfirmedWithCommitment(id, purchaseTxHashCommitment, buyer, vcCID, block.timestamp);\n        }\n    }\n\n    function updateVcCid(string memory cid) public nonReentrant {\n        _updateVcCid(cid);\n    }\n\n    function _updateVcCid(string memory cid) internal onlySeller {\n        vcCid = cid;\n        emit VcUpdated(id, cid, owner, block.timestamp);\n    }\n\n    /// @notice Allow buyer to update VC CID after delivery confirmation (for TX hash commitment)\n    /// @dev This allows the buyer to update the CID after revealAndConfirmDelivery to include TX hash commitment\n    /// @param cid The new VC CID to store on-chain\n    /// @param txHashCommitment Optional TX hash commitment for transaction verification (bytes32(0) if not provided)\n    function updateVcCidAfterDelivery(string memory cid, bytes32 txHashCommitment) public nonReentrant {\n        if (msg.sender != buyer) revert NotBuyer();\n        if (!delivered) revert NotDelivered(); // Must be delivered first\n        if (phase != Phase.Delivered) revert WrongPhase(); // Extra safety check\n        vcCid = cid;\n        emit VcUpdated(id, cid, buyer, block.timestamp);\n        \n        // Emit commitment event for transaction verification (Feature 1)\n        if (txHashCommitment != bytes32(0)) {\n            emit DeliveryConfirmedWithCommitment(id, txHashCommitment, buyer, cid, block.timestamp);\n        }\n    }\n\n    function depositPurchasePrivate(bytes32 _commitment, bytes32 _valueCommitment, bytes calldata _valueRangeProof) public payable nonReentrant {\n        _depositPurchase(_commitment, _valueCommitment, _valueRangeProof);\n    }\n\n    // Simple public purchase function for non-private transactions (from working version)\n    function depositPurchase() public payable nonReentrant {\n        if (purchased) revert AlreadyPurchased();\n        if (msg.sender == owner) revert OwnerCannotPurchase();\n        if (msg.value != productPrice) revert IncorrectFee(); //  Exact price match\n        \n        purchased = true;\n        buyer = payable(msg.sender);\n        purchaseTimestamp = uint64(block.timestamp);\n        // productPrice stays the same (don't overwrite the original price)\n        \n        Phase oldPhase = phase;\n        phase = Phase.Purchased;\n        \n        emit PhaseChanged(id, oldPhase, phase, msg.sender, block.timestamp, bytes32(0));\n        //  Remove OrderConfirmed - that's for seller confirmation, not purchase\n        \n        // Emit comprehensive state change event\n        emit ProductStateChanged(id, owner, buyer, phase, block.timestamp, priceCommitment, purchased, delivered);\n    }\n\n    // Public purchase entrypoint (add)\n    function purchasePublic() external payable nonReentrant whenNotStopped {\n        if (msg.sender == owner) revert OwnerCannotPurchase();\n        if (purchased) revert AlreadyPurchased();\n        if (phase != Phase.Listed) revert WrongPhase();\n        if (!publicEnabled) revert PublicDisabled();\n        if (publicPriceWei == 0) revert PublicPriceNotSet();\n        if (msg.value != publicPriceWei) revert IncorrectFee();\n\n        buyer = payable(msg.sender);\n        purchaseMode = PurchaseMode.Public;\n        purchased = true;\n        purchaseTimestamp = uint64(block.timestamp);\n        productPrice = msg.value; //  Escrow the actual ETH received\n\n        Phase oldPhase = phase;\n        phase = Phase.Purchased;\n\n        emit PurchasedPublic(buyer);\n        emit PhaseChanged(id, oldPhase, phase, msg.sender, block.timestamp, bytes32(0));\n        //  Remove OrderConfirmed - that's for seller confirmation, not purchase\n        \n        // Emit comprehensive state change event\n        emit ProductStateChanged(id, owner, buyer, phase, block.timestamp, priceCommitment, purchased, delivered);\n    }\n    \n    // Frontend compatibility function - alias for depositPurchase\n    function publicPurchase() public payable nonReentrant {\n        depositPurchase();\n    }\n\n    function _depositPurchase(bytes32 _commitment, bytes32 _valueCommitment, bytes calldata _valueRangeProof) internal {\n        if (purchased) revert AlreadyPurchased();\n        if (msg.sender == owner) revert OwnerCannotPurchase();\n        if (msg.value != productPrice) revert IncorrectFee(); //  Check exact price match\n        \n        purchased = true;\n        buyer = payable(msg.sender);\n        purchaseTimestamp = uint64(block.timestamp);\n        // productPrice stays the same (don't overwrite the original price)\n        Phase oldPhase = phase;\n        phase = Phase.Purchased;\n        emit PhaseChanged(id, oldPhase, phase, msg.sender, block.timestamp, _commitment);\n        priceCommitment = _commitment;\n        valueCommitment = _valueCommitment;\n        valueRangeProof = _valueRangeProof;\n        emit ValueCommitted(_valueCommitment, _valueRangeProof);\n        //  Remove OrderConfirmed - that's for seller confirmation, not purchase\n        \n        // Emit comprehensive state change event\n        emit ProductStateChanged(id, owner, buyer, phase, block.timestamp, priceCommitment, purchased, delivered);\n    }\n\n    function withdrawProductPrice() public nonReentrant {\n        _withdrawProductPrice();\n    }\n\n    function _withdrawProductPrice() internal onlyBuyer transporterSet {\n        if (!purchased) revert NotPurchased();\n        owner = buyer;\n        // No phase change here, just ownership transfer\n    }\n\n    function cancelDelivery() public nonReentrant {\n        _cancelDelivery();\n    }\n\n    function _cancelDelivery() internal onlySeller transporterSet {\n        if (!purchased) revert NotPurchased();\n        emit CancelDelivery(owner, transporter, id, block.timestamp);\n        // No phase change here\n    }\n\n    function setTransporter(address payable _transporter) external payable onlySeller nonReentrant {\n        if (phase != Phase.OrderConfirmed) revert WrongPhase();\n        if (block.timestamp > orderConfirmedTimestamp + BID_WINDOW) revert BiddingWindowNotExpired();\n        if (!isTransporter[_transporter]) revert NotATransporter();\n        \n        // Verify the delivery fee matches what was bid\n        if (msg.value != transporters[_transporter]) revert IncorrectDeliveryFee();\n        \n        deliveryFee = msg.value; // Use the actual ETH sent\n        transporter = _transporter;\n        \n        Phase oldPhase = phase;\n        phase = Phase.Bound;\n        emit PhaseChanged(id, oldPhase, phase, msg.sender, block.timestamp, bytes32(0));\n        emit TransporterSelected(id, _transporter, block.timestamp);\n    }\n\n    function createTransporter(uint _feeInWei) public nonReentrant {\n        _createTransporter(_feeInWei);\n    }\n\n    function _createTransporter(uint _feeInWei) internal {\n        if (transporterCount >= MAX_BIDS) revert BidCapReached();\n        if (transporters[msg.sender] != 0) revert AlreadyExists();\n        transporters[msg.sender] = _feeInWei;\n        isTransporter[msg.sender] = true;\n        transporterAddresses.push(msg.sender);\n        \n        // Use unchecked for safe increment\n        unchecked {\n            transporterCount++;\n        }\n        \n        emit TransporterCreated(msg.sender, id, block.timestamp);\n        // No phase change here\n    }\n\n    function securityDeposit() public payable nonReentrant {\n        _securityDeposit();\n    }\n\n    function _securityDeposit() internal {\n        if (!isTransporter[msg.sender]) revert NotRegistered();\n        securityDeposits[msg.sender] += msg.value;\n        emit TransporterSecurityDeposit(msg.sender, id, block.timestamp);\n        // No phase change here\n    }\n\n    // View function to return all transporter addresses and their fees\n    // Optimized to avoid unbounded loops in write operations\n    function getAllTransporters() public view returns (address[] memory, uint[] memory) {\n        uint len = transporterAddresses.length;\n        address[] memory addresses = new address[](len);\n        uint[] memory fees = new uint[](len);\n        \n        // Use unchecked for safe loop operations\n        unchecked {\n            for (uint i = 0; i < len; i++) {\n                addresses[i] = transporterAddresses[i];\n                fees[i] = transporters[transporterAddresses[i]];\n            }\n        }\n        \n        return (addresses, fees);\n    }\n\n    function checkAndDeleteProduct() public nonReentrant {\n        _checkAndDeleteProduct();\n    }\n\n    function _checkAndDeleteProduct() internal {\n        if (!purchased) revert NotPurchased();\n        if (block.timestamp < purchaseTimestamp + 2 days) revert TooEarlyToDelete();\n        emit ProductDeleted(id, name, owner, block.timestamp);\n        deleteProduct();\n        // No phase change here, product is deleted\n    }\n\n    function deleteProduct() internal {\n        delete name;\n        delete priceCommitment;\n        delete owner;\n        delete purchased;\n        delete buyer;\n        delete transporter;\n        delete deliveryFee;\n        delete purchaseTimestamp;\n        delete transporterCount;\n    }\n\n    function verifyRevealedValue(uint revealedValue, bytes32 blinding) public nonReentrant returns (bool) {\n        return _verifyRevealedValue(revealedValue, blinding);\n    }\n\n    function _verifyRevealedValue(uint revealedValue, bytes32 blinding) internal returns (bool) {\n        bytes32 computed = keccak256(abi.encodePacked(revealedValue, blinding));\n        bool valid = (computed == priceCommitment);\n        emit ValueRevealed(id, priceCommitment, valid, block.timestamp);\n        return valid;\n        // No phase change here\n    }\n\n    function revealAndConfirmDelivery(uint revealedValue, bytes32 blinding, string memory vcCID) public nonReentrant {\n        _revealAndConfirmDelivery(revealedValue, blinding, vcCID);\n    }\n\n    function _revealAndConfirmDelivery(uint revealedValue, bytes32 blinding, string memory vcCID) internal {\n        if (msg.sender != buyer) revert NotBuyer();\n        if (transporter == address(0)) revert TransporterNotSet();\n        \n        //  Verify the revealed value matches the commitment\n        bytes32 computed = computeCommitment(revealedValue, blinding);\n        bool valid;\n        \n        //  For public purchases with publicPriceCommitment set\n        if (publicPriceCommitment != bytes32(0)) {\n            // Verify the revealed value matches the public price\n            if (revealedValue != publicPriceWei) revert RevealInvalid();\n            \n            // Check if priceCommitment was updated (new products) or needs to be computed (old products)\n            bytes32 expectedBlinding = keccak256(abi.encodePacked(address(this), owner));\n            if (blinding == expectedBlinding) {\n                // For new products: priceCommitment was updated in setPublicPriceWithCommitment\n                valid = (computed == priceCommitment);\n            } else {\n                // For old products: compute the expected commitment on-the-fly\n                bytes32 expectedCommitment = keccak256(abi.encodePacked(revealedValue, expectedBlinding));\n                valid = (computed == expectedCommitment);\n            }\n        } else {\n            // Legacy/private purchases: check against priceCommitment\n            valid = (computed == priceCommitment);\n        }\n        \n        if (!valid) revert RevealInvalid();\n        _confirmDelivery(vcCID);\n    }\n\n    function _confirmDelivery(string memory vcCID) internal {\n        if (delivered) revert AlreadyDelivered();\n        if (block.timestamp > orderConfirmedTimestamp + DELIVERY_WINDOW) revert DeliveryTimeout();\n        delivered = true;\n        Phase oldPhase = phase;\n        phase = Phase.Delivered;\n\n        // cache for events\n        bytes32 memoHash = productMemoHashes[id];\n        bytes32 railgunTx = productRailgunTxRefs[id];\n\n        if (purchaseMode == PurchaseMode.Private) {\n            // No ETH moves  settlement was private.\n            // If you didn't emit this in recordPrivatePayment(), you can emit it here:\n            if (memoHash != bytes32(0)) {\n                emit PaidPrivately(id, memoHash, railgunTx, block.timestamp);\n            }\n            // value=0, ref=memo (optional convention)\n            emit PhaseChanged(id, oldPhase, phase, msg.sender, block.timestamp, memoHash);\n\n        } else if (purchaseMode == PurchaseMode.Public) {\n            uint256 sellerAmount = productPrice; //  Use escrowed amount, not posted price\n            if (sellerAmount == 0) revert PriceZero();\n\n            // compute transporter payout\n            uint256 transporterAmount = deliveryFee + securityDeposits[transporter];\n\n            // --- Effects first ---\n            productPrice = 0; //  Zero escrowed funds before transfers\n            securityDeposits[transporter] = 0;\n            deliveryFee = 0;\n\n            // --- Interactions ---\n            (bool sentSeller, ) = owner.call{value: sellerAmount}(\"\");\n            if (!sentSeller) revert TransferFailed(owner, sellerAmount);\n\n            if (transporter != address(0) && transporterAmount > 0) {\n                (bool sentTransporter, ) = transporter.call{value: transporterAmount}(\"\");\n                if (!sentTransporter) revert TransferFailed(transporter, transporterAmount);\n            }\n\n            emit PhaseChanged(id, oldPhase, phase, msg.sender, block.timestamp, bytes32(0));\n\n        } else {\n            revert InvalidPurchaseMode(); // add a small custom error\n        }\n\n        // update VC anchor with latest CID\n        vcCid = vcCID;\n        emit VcUpdated(id, vcCID, owner, block.timestamp);\n        emit DeliveryConfirmed(buyer, transporter, owner, id, priceCommitment, vcCID, block.timestamp);\n    }\n\n    function timeout() public nonReentrant whenNotStopped {\n        _timeout();\n    }\n\n    function _timeout() internal {\n        if (delivered) revert AlreadyDelivered();\n        if (block.timestamp <= orderConfirmedTimestamp + DELIVERY_WINDOW) revert NotYetTimeout();\n        Phase oldPhase = phase;\n        phase = Phase.Expired;\n        \n        if (purchaseMode == PurchaseMode.Public) {\n            // Use unchecked for safe arithmetic operations\n            unchecked {\n                uint lateDays = (block.timestamp - (orderConfirmedTimestamp + DELIVERY_WINDOW)) / 1 days + 1;\n                if (lateDays > 10) lateDays = 10;\n                uint penalty = (securityDeposits[transporter] * 10 * lateDays) / 100;\n                if (penalty > securityDeposits[transporter]) penalty = securityDeposits[transporter];\n                \n                uint refundToBuyer = productPrice + penalty; //  Use escrowed amount\n                productPrice = 0; //  Zero before transfer\n                (bool sentBuyer, ) = buyer.call{value: refundToBuyer}(\"\");\n                if (!sentBuyer) revert BuyerRefundFailed();\n                emit FundsTransferred(buyer, id, block.timestamp);\n                \n                if (penalty > 0) {\n                    (bool sentPenalty, ) = buyer.call{value: penalty}(\"\");\n                    if (!sentPenalty) revert TransferFailed(buyer, penalty);\n                    emit PenaltyApplied(transporter, id, \"Late delivery\", block.timestamp);\n                }\n            }\n        }\n        // Private mode: no ETH to refund\n        \n        emit PhaseChanged(id, oldPhase, phase, msg.sender, block.timestamp, bytes32(0));\n        emit DeliveryTimeoutEvent(msg.sender, id, block.timestamp, block.timestamp);\n    }\n\n    function sellerTimeout() public nonReentrant whenNotStopped {\n        _sellerTimeout();\n    }\n\n    function _sellerTimeout() internal {\n        if (delivered) revert AlreadyDelivered();\n        if (phase != Phase.Purchased) revert WrongPhase();\n        if (block.timestamp <= purchaseTimestamp + SELLER_WINDOW) revert SellerWindowNotExpired();\n        Phase oldPhase = phase;\n        phase = Phase.Expired;\n        \n        if (purchaseMode == PurchaseMode.Public) {\n            uint256 refundAmount = productPrice; //  Use escrowed amount\n            if (refundAmount > 0) {\n                productPrice = 0; //  Zero before transfer\n                (bool sentBuyer, ) = buyer.call{value: refundAmount}(\"\");\n                if (!sentBuyer) revert BuyerRefundFailed();\n                emit FundsTransferred(buyer, id, block.timestamp);\n            }\n        }\n        // Private mode: no ETH to refund\n        \n        emit PhaseChanged(id, oldPhase, phase, msg.sender, block.timestamp, bytes32(0));\n        emit SellerTimeout(msg.sender, id, block.timestamp, block.timestamp);\n    }\n\n    function bidTimeout() public nonReentrant whenNotStopped {\n        _bidTimeout();\n    }\n\n    function _bidTimeout() internal {\n        if (phase != Phase.OrderConfirmed) revert WrongPhase();\n        if (block.timestamp <= orderConfirmedTimestamp + BID_WINDOW) revert BiddingWindowNotExpired();\n        Phase oldPhase = phase;\n        phase = Phase.Expired;\n        \n        if (purchaseMode == PurchaseMode.Public) {\n            uint256 refundAmount = productPrice; //  Use escrowed amount\n            if (refundAmount > 0) {\n                productPrice = 0; //  Zero before transfer\n                (bool sentBuyer, ) = buyer.call{value: refundAmount}(\"\");\n                if (!sentBuyer) revert BuyerRefundFailed();\n                emit FundsTransferred(buyer, id, block.timestamp);\n            }\n        }\n        // Private mode: no ETH to refund\n        \n        emit PhaseChanged(id, oldPhase, phase, msg.sender, block.timestamp, bytes32(0));\n    }\n\n    function withdrawBid() public nonReentrant {\n        _withdrawBid();\n    }\n\n    function _withdrawBid() internal {\n        if (phase != Phase.OrderConfirmed) revert WrongPhase();\n        if (transporter == msg.sender) revert AlreadySelected();\n        uint fee = transporters[msg.sender];\n        uint deposit = securityDeposits[msg.sender];\n        if (fee == 0 && deposit == 0) revert NotRegistered();\n        \n        transporters[msg.sender] = 0;\n        securityDeposits[msg.sender] = 0;\n        isTransporter[msg.sender] = false;\n        \n        // Use unchecked for safe decrement\n        unchecked {\n            transporterCount--;\n        }\n        \n        uint refundAmount = deposit;\n        if (refundAmount > 0) {\n            (bool sent, ) = payable(msg.sender).call{value: refundAmount}(\"\");\n            if (!sent) revert RefundFailed();\n            emit FundsTransferred(msg.sender, id, block.timestamp);\n        }\n        emit BidWithdrawn(msg.sender, id, block.timestamp);\n        // No phase change here\n    }\n    \n    function recordPrivatePayment(uint256 _productId, bytes32 _memoHash, bytes32 _railgunTxRef) external nonReentrant whenNotStopped {\n        _recordPrivatePayment(_productId, _memoHash, _railgunTxRef);\n    }\n    \n    function _recordPrivatePayment(uint256 _productId, bytes32 _memoHash, bytes32 _railgunTxRef) internal {\n        if (_productId != id) revert WrongProductId();\n        if (_memoHash == bytes32(0)) revert ZeroMemoHash();\n        if (_railgunTxRef == bytes32(0)) revert ZeroTxRef();\n        \n        if (phase != Phase.Listed) revert AlreadyPurchased();\n        if (!privateEnabled) revert PrivateDisabled();\n        \n        if (productMemoHashes[id] != bytes32(0)) revert AlreadyPaid();\n        if (usedMemoHash[_memoHash]) revert MemoAlreadyUsed();\n        if (privatePayments[_memoHash]) revert PaymentAlreadyRecorded();\n        \n        // Restrict to buyer or seller only (no transporter)\n        if (msg.sender != buyer && msg.sender != owner) revert NotParticipant();\n        \n        buyer = payable(msg.sender);\n        purchaseMode = PurchaseMode.Private;\n        purchased = true;\n        purchaseTimestamp = uint64(block.timestamp);\n        \n        privatePayments[_memoHash] = true;\n        usedMemoHash[_memoHash] = true;\n        productMemoHashes[id] = _memoHash;\n        productRailgunTxRefs[id] = _railgunTxRef;\n        productPaidBy[id] = msg.sender;\n        \n        Phase oldPhase = phase;\n        phase = Phase.Purchased;\n        \n        emit PurchasedPrivate(buyer, _memoHash, _railgunTxRef);\n        emit PhaseChanged(id, oldPhase, phase, msg.sender, block.timestamp, _memoHash);\n        //  Remove OrderConfirmed - that's for seller confirmation, not purchase\n        \n        // Emit comprehensive state change event\n        emit ProductStateChanged(id, owner, buyer, phase, block.timestamp, priceCommitment, purchased, delivered);\n        \n        emit PrivatePaymentRecorded(id, _memoHash, _railgunTxRef, msg.sender, block.timestamp);\n    }\n    \n    function hasPrivatePayment() external view returns (bool) {\n        return productMemoHashes[id] != bytes32(0);\n    }\n    \n    function getPrivatePaymentDetails() external view returns (bytes32 memoHash, bytes32 railgunTxRef, address recorder) {\n        memoHash = productMemoHashes[id];\n        railgunTxRef = productRailgunTxRefs[id];\n        recorder = productPaidBy[id];\n    }\n\n    // Add price function for frontend compatibility (from working version)\n    function price() external view returns (uint256) {\n        return productPrice;\n    }\n\n    // Explicitly reject unexpected ETH\n    receive() external payable {\n        revert(\"ProductEscrow does not accept unexpected ETH\");\n    }\n\n    fallback() external payable {\n        revert(\"ProductEscrow does not accept unexpected ETH\");\n    }\n}",
  "sourcePath": "C:\\Users\\yamen\\ev-battery-supplychain\\contracts\\ProductEscrow_Initializer.sol",
  "compiler": {
    "name": "solc",
    "version": "0.8.21+commit.d9974bed.Emscripten.clang"
  },
  "schemaVersion": "3.4.16",
  "updatedAt": "2025-11-24T17:05:26.045Z",
  "networkType": "ethereum",
  "devdoc": {
    "errors": {
      "ReentrancyGuardReentrantCall()": [
        {
          "details": "Unauthorized reentrant call."
        }
      ]
    },
    "kind": "dev",
    "methods": {
      "confirmOrderWithCommitment(string,bytes32)": {
        "details": "This allows the seller to include purchase TX hash commitment when confirming order",
        "params": {
          "purchaseTxHashCommitment": "Optional purchase TX hash commitment for transaction verification (bytes32(0) if not provided)",
          "vcCID": "The VC CID to store on-chain"
        }
      },
      "setPublicPriceWithCommitment(uint256,bytes32)": {
        "details": "The commitment is frozen after first set to ensure immutability.",
        "params": {
          "commitment": "The Pedersen commitment (bytes32) to the price",
          "priceWei": "The public price in Wei"
        }
      },
      "updateVcCidAfterDelivery(string,bytes32)": {
        "details": "This allows the buyer to update the CID after revealAndConfirmDelivery to include TX hash commitment",
        "params": {
          "cid": "The new VC CID to store on-chain",
          "txHashCommitment": "Optional TX hash commitment for transaction verification (bytes32(0) if not provided)"
        }
      }
    },
    "version": 1
  },
  "userdoc": {
    "kind": "user",
    "methods": {
      "confirmOrderWithCommitment(string,bytes32)": {
        "notice": "Confirm order with optional purchase TX hash commitment for transaction verification"
      },
      "setPublicPriceWithCommitment(uint256,bytes32)": {
        "notice": "Set the public price together with its Pedersen commitment."
      },
      "updateVcCidAfterDelivery(string,bytes32)": {
        "notice": "Allow buyer to update VC CID after delivery confirmation (for TX hash commitment)"
      }
    },
    "version": 1
  }
}